{
  "contractName": "DCZK",
  "abi": [
    {
      "inputs": [
        {
          "internalType": "address",
          "name": "_dai",
          "type": "address"
        },
        {
          "internalType": "address",
          "name": "_vat",
          "type": "address"
        },
        {
          "internalType": "address",
          "name": "_daiJoin",
          "type": "address"
        },
        {
          "internalType": "address",
          "name": "_pot",
          "type": "address"
        }
      ],
      "payable": false,
      "stateMutability": "nonpayable",
      "type": "constructor"
    },
    {
      "anonymous": false,
      "inputs": [
        {
          "indexed": false,
          "internalType": "uint256",
          "name": "rate",
          "type": "uint256"
        },
        {
          "indexed": false,
          "internalType": "uint256",
          "name": "amount",
          "type": "uint256"
        }
      ],
      "name": "AddLiquidity",
      "type": "event"
    },
    {
      "anonymous": false,
      "inputs": [
        {
          "indexed": true,
          "internalType": "address",
          "name": "owner",
          "type": "address"
        },
        {
          "indexed": true,
          "internalType": "address",
          "name": "spender",
          "type": "address"
        },
        {
          "indexed": false,
          "internalType": "uint256",
          "name": "value",
          "type": "uint256"
        }
      ],
      "name": "Approval",
      "type": "event"
    },
    {
      "anonymous": false,
      "inputs": [
        {
          "indexed": true,
          "internalType": "address",
          "name": "burner",
          "type": "address"
        },
        {
          "indexed": false,
          "internalType": "uint256",
          "name": "amount",
          "type": "uint256"
        },
        {
          "indexed": false,
          "internalType": "uint256",
          "name": "principal",
          "type": "uint256"
        }
      ],
      "name": "Burn",
      "type": "event"
    },
    {
      "anonymous": false,
      "inputs": [
        {
          "indexed": true,
          "internalType": "address",
          "name": "buyer",
          "type": "address"
        },
        {
          "indexed": false,
          "internalType": "uint256",
          "name": "dczk",
          "type": "uint256"
        },
        {
          "indexed": false,
          "internalType": "uint256",
          "name": "dai",
          "type": "uint256"
        }
      ],
      "name": "Buy",
      "type": "event"
    },
    {
      "anonymous": false,
      "inputs": [
        {
          "indexed": true,
          "internalType": "address",
          "name": "to",
          "type": "address"
        },
        {
          "indexed": false,
          "internalType": "uint256",
          "name": "amount",
          "type": "uint256"
        },
        {
          "indexed": false,
          "internalType": "uint256",
          "name": "principal",
          "type": "uint256"
        }
      ],
      "name": "Mint",
      "type": "event"
    },
    {
      "anonymous": false,
      "inputs": [
        {
          "indexed": false,
          "internalType": "uint256",
          "name": "rate",
          "type": "uint256"
        },
        {
          "indexed": false,
          "internalType": "address",
          "name": "caller",
          "type": "address"
        }
      ],
      "name": "RateUpdate",
      "type": "event"
    },
    {
      "anonymous": false,
      "inputs": [
        {
          "indexed": true,
          "internalType": "address",
          "name": "seller",
          "type": "address"
        },
        {
          "indexed": false,
          "internalType": "uint256",
          "name": "dczk",
          "type": "uint256"
        },
        {
          "indexed": false,
          "internalType": "uint256",
          "name": "dai",
          "type": "uint256"
        }
      ],
      "name": "Sell",
      "type": "event"
    },
    {
      "anonymous": false,
      "inputs": [
        {
          "indexed": true,
          "internalType": "address",
          "name": "from",
          "type": "address"
        },
        {
          "indexed": true,
          "internalType": "address",
          "name": "to",
          "type": "address"
        },
        {
          "indexed": false,
          "internalType": "uint256",
          "name": "value",
          "type": "uint256"
        }
      ],
      "name": "Transfer",
      "type": "event"
    },
    {
      "anonymous": false,
      "inputs": [
        {
          "indexed": true,
          "internalType": "address",
          "name": "from",
          "type": "address"
        },
        {
          "indexed": true,
          "internalType": "address",
          "name": "to",
          "type": "address"
        },
        {
          "indexed": false,
          "internalType": "uint256",
          "name": "principal",
          "type": "uint256"
        },
        {
          "indexed": false,
          "internalType": "uint256",
          "name": "value",
          "type": "uint256"
        }
      ],
      "name": "TransferPrincipal",
      "type": "event"
    },
    {
      "constant": true,
      "inputs": [],
      "name": "daiJoin",
      "outputs": [
        {
          "internalType": "contract IDaiJoin",
          "name": "",
          "type": "address"
        }
      ],
      "payable": false,
      "stateMutability": "view",
      "type": "function"
    },
    {
      "constant": true,
      "inputs": [],
      "name": "depositToken",
      "outputs": [
        {
          "internalType": "contract IERC20",
          "name": "",
          "type": "address"
        }
      ],
      "payable": false,
      "stateMutability": "view",
      "type": "function"
    },
    {
      "constant": true,
      "inputs": [],
      "name": "lastUpdate",
      "outputs": [
        {
          "internalType": "uint256",
          "name": "",
          "type": "uint256"
        }
      ],
      "payable": false,
      "stateMutability": "view",
      "type": "function"
    },
    {
      "constant": true,
      "inputs": [],
      "name": "lchi",
      "outputs": [
        {
          "internalType": "uint256",
          "name": "",
          "type": "uint256"
        }
      ],
      "payable": false,
      "stateMutability": "view",
      "type": "function"
    },
    {
      "constant": true,
      "inputs": [],
      "name": "lrho",
      "outputs": [
        {
          "internalType": "uint256",
          "name": "",
          "type": "uint256"
        }
      ],
      "payable": false,
      "stateMutability": "view",
      "type": "function"
    },
    {
      "constant": true,
      "inputs": [],
      "name": "maxRate",
      "outputs": [
        {
          "internalType": "uint256",
          "name": "",
          "type": "uint256"
        }
      ],
      "payable": false,
      "stateMutability": "view",
      "type": "function"
    },
    {
      "constant": true,
      "inputs": [],
      "name": "oracleAddress",
      "outputs": [
        {
          "internalType": "address",
          "name": "",
          "type": "address"
        }
      ],
      "payable": false,
      "stateMutability": "view",
      "type": "function"
    },
    {
      "constant": true,
      "inputs": [],
      "name": "pot",
      "outputs": [
        {
          "internalType": "contract IPot",
          "name": "",
          "type": "address"
        }
      ],
      "payable": false,
      "stateMutability": "view",
      "type": "function"
    },
    {
      "constant": true,
      "inputs": [],
      "name": "rate",
      "outputs": [
        {
          "internalType": "uint256",
          "name": "",
          "type": "uint256"
        }
      ],
      "payable": false,
      "stateMutability": "view",
      "type": "function"
    },
    {
      "constant": true,
      "inputs": [],
      "name": "totalVolume",
      "outputs": [
        {
          "internalType": "uint256",
          "name": "",
          "type": "uint256"
        }
      ],
      "payable": false,
      "stateMutability": "view",
      "type": "function"
    },
    {
      "constant": true,
      "inputs": [
        {
          "internalType": "uint256",
          "name": "",
          "type": "uint256"
        }
      ],
      "name": "txs",
      "outputs": [
        {
          "internalType": "uint256",
          "name": "next",
          "type": "uint256"
        },
        {
          "internalType": "uint256",
          "name": "amount",
          "type": "uint256"
        }
      ],
      "payable": false,
      "stateMutability": "view",
      "type": "function"
    },
    {
      "constant": true,
      "inputs": [],
      "name": "vat",
      "outputs": [
        {
          "internalType": "contract IVat",
          "name": "",
          "type": "address"
        }
      ],
      "payable": false,
      "stateMutability": "view",
      "type": "function"
    },
    {
      "constant": true,
      "inputs": [],
      "name": "name",
      "outputs": [
        {
          "internalType": "string",
          "name": "",
          "type": "string"
        }
      ],
      "payable": false,
      "stateMutability": "view",
      "type": "function"
    },
    {
      "constant": true,
      "inputs": [],
      "name": "symbol",
      "outputs": [
        {
          "internalType": "string",
          "name": "",
          "type": "string"
        }
      ],
      "payable": false,
      "stateMutability": "view",
      "type": "function"
    },
    {
      "constant": true,
      "inputs": [],
      "name": "decimals",
      "outputs": [
        {
          "internalType": "uint8",
          "name": "",
          "type": "uint8"
        }
      ],
      "payable": false,
      "stateMutability": "view",
      "type": "function"
    },
    {
      "constant": true,
      "inputs": [],
      "name": "totalSupply",
      "outputs": [
        {
          "internalType": "uint256",
          "name": "",
          "type": "uint256"
        }
      ],
      "payable": false,
      "stateMutability": "view",
      "type": "function"
    },
    {
      "constant": true,
      "inputs": [
        {
          "internalType": "address",
          "name": "account",
          "type": "address"
        }
      ],
      "name": "balanceOf",
      "outputs": [
        {
          "internalType": "uint256",
          "name": "",
          "type": "uint256"
        }
      ],
      "payable": false,
      "stateMutability": "view",
      "type": "function"
    },
    {
      "constant": false,
      "inputs": [
        {
          "internalType": "address",
          "name": "recipient",
          "type": "address"
        },
        {
          "internalType": "uint256",
          "name": "amount",
          "type": "uint256"
        }
      ],
      "name": "transfer",
      "outputs": [
        {
          "internalType": "bool",
          "name": "",
          "type": "bool"
        }
      ],
      "payable": false,
      "stateMutability": "nonpayable",
      "type": "function"
    },
    {
      "constant": true,
      "inputs": [
        {
          "internalType": "address",
          "name": "owner",
          "type": "address"
        },
        {
          "internalType": "address",
          "name": "spender",
          "type": "address"
        }
      ],
      "name": "allowance",
      "outputs": [
        {
          "internalType": "uint256",
          "name": "",
          "type": "uint256"
        }
      ],
      "payable": false,
      "stateMutability": "view",
      "type": "function"
    },
    {
      "constant": false,
      "inputs": [
        {
          "internalType": "address",
          "name": "spender",
          "type": "address"
        },
        {
          "internalType": "uint256",
          "name": "amount",
          "type": "uint256"
        }
      ],
      "name": "approve",
      "outputs": [
        {
          "internalType": "bool",
          "name": "",
          "type": "bool"
        }
      ],
      "payable": false,
      "stateMutability": "nonpayable",
      "type": "function"
    },
    {
      "constant": false,
      "inputs": [
        {
          "internalType": "address",
          "name": "sender",
          "type": "address"
        },
        {
          "internalType": "address",
          "name": "recipient",
          "type": "address"
        },
        {
          "internalType": "uint256",
          "name": "amount",
          "type": "uint256"
        }
      ],
      "name": "transferFrom",
      "outputs": [
        {
          "internalType": "bool",
          "name": "",
          "type": "bool"
        }
      ],
      "payable": false,
      "stateMutability": "nonpayable",
      "type": "function"
    },
    {
      "constant": false,
      "inputs": [
        {
          "internalType": "address",
          "name": "spender",
          "type": "address"
        },
        {
          "internalType": "uint256",
          "name": "addedValue",
          "type": "uint256"
        }
      ],
      "name": "increaseAllowance",
      "outputs": [
        {
          "internalType": "bool",
          "name": "",
          "type": "bool"
        }
      ],
      "payable": false,
      "stateMutability": "nonpayable",
      "type": "function"
    },
    {
      "constant": false,
      "inputs": [
        {
          "internalType": "address",
          "name": "spender",
          "type": "address"
        },
        {
          "internalType": "uint256",
          "name": "subtractedValue",
          "type": "uint256"
        }
      ],
      "name": "decreaseAllowance",
      "outputs": [
        {
          "internalType": "bool",
          "name": "",
          "type": "bool"
        }
      ],
      "payable": false,
      "stateMutability": "nonpayable",
      "type": "function"
    },
    {
      "constant": true,
      "inputs": [
        {
          "internalType": "address",
          "name": "account",
          "type": "address"
        }
      ],
      "name": "principalBalanceOf",
      "outputs": [
        {
          "internalType": "uint256",
          "name": "",
          "type": "uint256"
        }
      ],
      "payable": false,
      "stateMutability": "view",
      "type": "function"
    },
    {
      "constant": true,
      "inputs": [],
      "name": "principalTotalSupply",
      "outputs": [
        {
          "internalType": "uint256",
          "name": "",
          "type": "uint256"
        }
      ],
      "payable": false,
      "stateMutability": "view",
      "type": "function"
    },
    {
      "constant": true,
      "inputs": [],
      "name": "potDrip",
      "outputs": [
        {
          "internalType": "uint256",
          "name": "",
          "type": "uint256"
        }
      ],
      "payable": false,
      "stateMutability": "view",
      "type": "function"
    },
    {
      "constant": true,
      "inputs": [],
      "name": "potSupply",
      "outputs": [
        {
          "internalType": "uint256",
          "name": "",
          "type": "uint256"
        }
      ],
      "payable": false,
      "stateMutability": "view",
      "type": "function"
    },
    {
      "constant": true,
      "inputs": [],
      "name": "principalPotSupply",
      "outputs": [
        {
          "internalType": "uint256",
          "name": "",
          "type": "uint256"
        }
      ],
      "payable": false,
      "stateMutability": "view",
      "type": "function"
    },
    {
      "constant": false,
      "inputs": [
        {
          "internalType": "uint256",
          "name": "amount",
          "type": "uint256"
        }
      ],
      "name": "buy",
      "outputs": [],
      "payable": false,
      "stateMutability": "nonpayable",
      "type": "function"
    },
    {
      "constant": false,
      "inputs": [
        {
          "internalType": "uint256",
          "name": "amount",
          "type": "uint256"
        }
      ],
      "name": "sell",
      "outputs": [],
      "payable": false,
      "stateMutability": "nonpayable",
      "type": "function"
    },
    {
      "constant": true,
      "inputs": [],
      "name": "getThreads",
      "outputs": [
        {
          "internalType": "uint256[]",
          "name": "rates",
          "type": "uint256[]"
        },
        {
          "internalType": "uint256[]",
          "name": "amounts",
          "type": "uint256[]"
        }
      ],
      "payable": false,
      "stateMutability": "view",
      "type": "function"
    },
    {
      "constant": false,
      "inputs": [
        {
          "internalType": "uint256",
          "name": "_rate",
          "type": "uint256"
        }
      ],
      "name": "updateRate",
      "outputs": [],
      "payable": false,
      "stateMutability": "nonpayable",
      "type": "function"
    }
  ],
  "bytecode": "0x60806040526040518060400160405280600e81526020017f64435a4b20546573742076302e32000000000000000000000000000000000000815250600090805190602001906200005192919062000572565b506040518060400160405280600681526020017f64435a4b30320000000000000000000000000000000000000000000000000000815250600190805190602001906200009f92919062000572565b506012600260006101000a81548160ff021916908360ff1602179055506801314fb37062980000600c557389188be35b16af852dc0a4a9e47e0ca871fadf9a601060006101000a81548173ffffffffffffffffffffffffffffffffffffffff021916908373ffffffffffffffffffffffffffffffffffffffff1602179055503480156200012b57600080fd5b5060405162003ec438038062003ec4833981810160405260808110156200015157600080fd5b810190808051906020019092919080519060200190929190805190602001909291908051906020019092919050505083600660006101000a81548173ffffffffffffffffffffffffffffffffffffffff021916908373ffffffffffffffffffffffffffffffffffffffff16021790555081600860006101000a81548173ffffffffffffffffffffffffffffffffffffffff021916908373ffffffffffffffffffffffffffffffffffffffff16021790555082600760006101000a81548173ffffffffffffffffffffffffffffffffffffffff021916908373ffffffffffffffffffffffffffffffffffffffff16021790555080600960006101000a81548173ffffffffffffffffffffffffffffffffffffffff021916908373ffffffffffffffffffffffffffffffffffffffff160217905550600760009054906101000a900473ffffffffffffffffffffffffffffffffffffffff1673ffffffffffffffffffffffffffffffffffffffff1663a3b22fc4600860009054906101000a900473ffffffffffffffffffffffffffffffffffffffff166040518263ffffffff1660e01b8152600401808273ffffffffffffffffffffffffffffffffffffffff1673ffffffffffffffffffffffffffffffffffffffff168152602001915050600060405180830381600087803b1580156200034857600080fd5b505af11580156200035d573d6000803e3d6000fd5b50505050600760009054906101000a900473ffffffffffffffffffffffffffffffffffffffff1673ffffffffffffffffffffffffffffffffffffffff1663a3b22fc4600960009054906101000a900473ffffffffffffffffffffffffffffffffffffffff166040518263ffffffff1660e01b8152600401808273ffffffffffffffffffffffffffffffffffffffff1673ffffffffffffffffffffffffffffffffffffffff168152602001915050600060405180830381600087803b1580156200042557600080fd5b505af11580156200043a573d6000803e3d6000fd5b50505050600660009054906101000a900473ffffffffffffffffffffffffffffffffffffffff1673ffffffffffffffffffffffffffffffffffffffff1663095ea7b3600860009054906101000a900473ffffffffffffffffffffffffffffffffffffffff167fffffffffffffffffffffffffffffffffffffffffffffffffffffffffffffffff6040518363ffffffff1660e01b8152600401808373ffffffffffffffffffffffffffffffffffffffff1673ffffffffffffffffffffffffffffffffffffffff16815260200182815260200192505050602060405180830381600087803b1580156200052a57600080fd5b505af11580156200053f573d6000803e3d6000fd5b505050506040513d60208110156200055657600080fd5b8101908080519060200190929190505050505050505062000621565b828054600181600116156101000203166002900490600052602060002090601f016020900481019282601f10620005b557805160ff1916838001178555620005e6565b82800160010185558215620005e6579182015b82811115620005e5578251825591602001919060010190620005c8565b5b509050620005f59190620005f9565b5090565b6200061e91905b808211156200061a57600081600090555060010162000600565b5090565b90565b61389380620006316000396000f3fe608060405234801561001057600080fd5b50600436106101f05760003560e01c8063a457c2d71161010f578063c89039c5116100a2578063e4849b3211610071578063e4849b32146109e8578063ece1d6e514610a16578063f5715d5614610a34578063f5c5112f14610a7d576101f0565b8063c89039c5146108da578063d96a094a14610924578063d9d7417014610952578063dd62ed3e14610970576101f0565b8063c0463711116100de578063c0463711146107fc578063c11645bc1461081a578063c634dfaa14610864578063c6e99c29146108bc576101f0565b8063a457c2d71461063f578063a89ae4ba146106a5578063a9059cbb146106ef578063b9a2868214610755576101f0565b806336569e771161018757806369ea17711161015657806369ea1771146105185780636f8220ec1461054657806370a082311461056457806395d89b41146105bc576101f0565b806336569e7714610400578063395093511461044a5780634ba2363a146104b05780635f81a57c146104fa576101f0565b806323b872dd116101c357806323b872dd1461031a5780632c4e722e146103a057806330d7e198146103be578063313ce567146103dc576101f0565b806306fdde03146101f5578063095ea7b31461027857806318160ddd146102de5780631e559531146102fc575b600080fd5b6101fd610a9b565b6040518080602001828103825283818151815260200191508051906020019080838360005b8381101561023d578082015181840152602081019050610222565b50505050905090810190601f16801561026a5780820380516001836020036101000a031916815260200191505b509250505060405180910390f35b6102c46004803603604081101561028e57600080fd5b81019080803573ffffffffffffffffffffffffffffffffffffffff16906020019092919080359060200190929190505050610b3d565b604051808215151515815260200191505060405180910390f35b6102e6610b54565b6040518082815260200191505060405180910390f35b610304610b6e565b6040518082815260200191505060405180910390f35b6103866004803603606081101561033057600080fd5b81019080803573ffffffffffffffffffffffffffffffffffffffff169060200190929190803573ffffffffffffffffffffffffffffffffffffffff16906020019092919080359060200190929190505050610c4f565b604051808215151515815260200191505060405180910390f35b6103a8610d10565b6040518082815260200191505060405180910390f35b6103c6610d16565b6040518082815260200191505060405180910390f35b6103e4610d20565b604051808260ff1660ff16815260200191505060405180910390f35b610408610d37565b604051808273ffffffffffffffffffffffffffffffffffffffff1673ffffffffffffffffffffffffffffffffffffffff16815260200191505060405180910390f35b6104966004803603604081101561046057600080fd5b81019080803573ffffffffffffffffffffffffffffffffffffffff16906020019092919080359060200190929190505050610d5d565b604051808215151515815260200191505060405180910390f35b6104b8610df9565b604051808273ffffffffffffffffffffffffffffffffffffffff1673ffffffffffffffffffffffffffffffffffffffff16815260200191505060405180910390f35b610502610e1f565b6040518082815260200191505060405180910390f35b6105446004803603602081101561052e57600080fd5b8101908080359060200190929190505050610e25565b005b61054e610f66565b6040518082815260200191505060405180910390f35b6105a66004803603602081101561057a57600080fd5b81019080803573ffffffffffffffffffffffffffffffffffffffff169060200190929190505050611057565b6040518082815260200191505060405180910390f35b6105c46110b0565b6040518080602001828103825283818151815260200191508051906020019080838360005b838110156106045780820151818401526020810190506105e9565b50505050905090810190601f1680156106315780820380516001836020036101000a031916815260200191505b509250505060405180910390f35b61068b6004803603604081101561065557600080fd5b81019080803573ffffffffffffffffffffffffffffffffffffffff16906020019092919080359060200190929190505050611152565b604051808215151515815260200191505060405180910390f35b6106ad611207565b604051808273ffffffffffffffffffffffffffffffffffffffff1673ffffffffffffffffffffffffffffffffffffffff16815260200191505060405180910390f35b61073b6004803603604081101561070557600080fd5b81019080803573ffffffffffffffffffffffffffffffffffffffff1690602001909291908035906020019092919050505061122d565b604051808215151515815260200191505060405180910390f35b61075d611244565b604051808060200180602001838103835285818151815260200191508051906020019060200280838360005b838110156107a4578082015181840152602081019050610789565b50505050905001838103825284818151815260200191508051906020019060200280838360005b838110156107e65780820151818401526020810190506107cb565b5050505090500194505050505060405180910390f35b6108046113fd565b6040518082815260200191505060405180910390f35b610822611403565b604051808273ffffffffffffffffffffffffffffffffffffffff1673ffffffffffffffffffffffffffffffffffffffff16815260200191505060405180910390f35b6108a66004803603602081101561087a57600080fd5b81019080803573ffffffffffffffffffffffffffffffffffffffff169060200190929190505050611429565b6040518082815260200191505060405180910390f35b6108c4611472565b6040518082815260200191505060405180910390f35b6108e261149c565b604051808273ffffffffffffffffffffffffffffffffffffffff1673ffffffffffffffffffffffffffffffffffffffff16815260200191505060405180910390f35b6109506004803603602081101561093a57600080fd5b81019080803590602001909291905050506114c2565b005b61095a611894565b6040518082815260200191505060405180910390f35b6109d26004803603604081101561098657600080fd5b81019080803573ffffffffffffffffffffffffffffffffffffffff169060200190929190803573ffffffffffffffffffffffffffffffffffffffff16906020019092919050505061189a565b6040518082815260200191505060405180910390f35b610a14600480360360208110156109fe57600080fd5b8101908080359060200190929190505050611921565b005b610a1e611bcc565b6040518082815260200191505060405180910390f35b610a6060048036036020811015610a4a57600080fd5b8101908080359060200190929190505050611bd2565b604051808381526020018281526020019250505060405180910390f35b610a85611bf6565b6040518082815260200191505060405180910390f35b606060008054600181600116156101000203166002900480601f016020809104026020016040519081016040528092919081815260200182805460018160011615610100020316600290048015610b335780601f10610b0857610100808354040283529160200191610b33565b820191906000526020600020905b815481529060010190602001808311610b1657829003601f168201915b5050505050905090565b6000610b4a338484611bfc565b6001905092915050565b6000610b69610b61611df3565b600554612002565b905090565b6000600960009054906101000a900473ffffffffffffffffffffffffffffffffffffffff1673ffffffffffffffffffffffffffffffffffffffff16630bebac86306040518263ffffffff1660e01b8152600401808273ffffffffffffffffffffffffffffffffffffffff1673ffffffffffffffffffffffffffffffffffffffff16815260200191505060206040518083038186803b158015610c0f57600080fd5b505afa158015610c23573d6000803e3d6000fd5b505050506040513d6020811015610c3957600080fd5b8101908080519060200190929190505050905090565b6000610c5c84848461202b565b610d058433610d00600460008973ffffffffffffffffffffffffffffffffffffffff1673ffffffffffffffffffffffffffffffffffffffff16815260200190815260200160002060003373ffffffffffffffffffffffffffffffffffffffff1673ffffffffffffffffffffffffffffffffffffffff16815260200190815260200160002054866040518060600160405280602881526020016137846028913961254a565b611bfc565b600190509392505050565b600c5481565b6000600554905090565b6000600260009054906101000a900460ff16905090565b600760009054906101000a900473ffffffffffffffffffffffffffffffffffffffff1681565b6000610def3384610dea600460003373ffffffffffffffffffffffffffffffffffffffff1673ffffffffffffffffffffffffffffffffffffffff16815260200190815260200160002060008873ffffffffffffffffffffffffffffffffffffffff1673ffffffffffffffffffffffffffffffffffffffff1681526020019081526020016000205486612604565b611bfc565b6001905092915050565b600960009054906101000a900473ffffffffffffffffffffffffffffffffffffffff1681565b600e5481565b601060009054906101000a900473ffffffffffffffffffffffffffffffffffffffff1673ffffffffffffffffffffffffffffffffffffffff163373ffffffffffffffffffffffffffffffffffffffff1614610ee8576040517f08c379a00000000000000000000000000000000000000000000000000000000081526004018080602001828103825260168152602001807f64637a6b2f7065726d697373696f6e2d64656e6965640000000000000000000081525060200191505060405180910390fd5b80600c8190555042600f819055507fda7331b1c3719e7cd62968d0ba190e373878f8b23d5743565b61ce0110c12b61600c5433604051808381526020018273ffffffffffffffffffffffffffffffffffffffff1673ffffffffffffffffffffffffffffffffffffffff1681526020019250505060405180910390a150565b6000611052610f73611df3565b600960009054906101000a900473ffffffffffffffffffffffffffffffffffffffff1673ffffffffffffffffffffffffffffffffffffffff16630bebac86306040518263ffffffff1660e01b8152600401808273ffffffffffffffffffffffffffffffffffffffff1673ffffffffffffffffffffffffffffffffffffffff16815260200191505060206040518083038186803b15801561101257600080fd5b505afa158015611026573d6000803e3d6000fd5b505050506040513d602081101561103c57600080fd5b8101908080519060200190929190505050612002565b905090565b60006110a9611064611df3565b600360008573ffffffffffffffffffffffffffffffffffffffff1673ffffffffffffffffffffffffffffffffffffffff16815260200190815260200160002054612002565b9050919050565b606060018054600181600116156101000203166002900480601f0160208091040260200160405190810160405280929190818152602001828054600181600116156101000203166002900480156111485780601f1061111d57610100808354040283529160200191611148565b820191906000526020600020905b81548152906001019060200180831161112b57829003601f168201915b5050505050905090565b60006111fd33846111f8600460003373ffffffffffffffffffffffffffffffffffffffff1673ffffffffffffffffffffffffffffffffffffffff16815260200190815260200160002060008873ffffffffffffffffffffffffffffffffffffffff1673ffffffffffffffffffffffffffffffffffffffff168152602001908152602001600020548660405180606001604052806025815260200161383a6025913961254a565b611bfc565b6001905092915050565b601060009054906101000a900473ffffffffffffffffffffffffffffffffffffffff1681565b600061123a33848461202b565b6001905092915050565b60608060008090506000600d54146113f8576001810190506000600d5490505b60006011600083815260200190815260200160002060000154146112a65760018201915060116000828152602001908152602001600020600001549050611264565b600d549050816040519080825280602002602001820160405280156112da5781602001602082028038833980820191505090505b5093508160405190808252806020026020018201604052801561130c5781602001602082028038833980820191505090505b50925060116000828152602001908152602001600020600101548360008151811061133357fe5b602002602001018181525050808460008151811061134d57fe5b602002602001018181525050600091505b60006011600083815260200190815260200160002060000154141580156113855750600982115b156113f65760018201915060116000828152602001908152602001600020600001549050808483815181106113b657fe5b60200260200101818152505060116000828152602001908152602001600020600101548383815181106113e557fe5b60200260200101818152505061135e565b505b509091565b600f5481565b600860009054906101000a900473ffffffffffffffffffffffffffffffffffffffff1681565b6000600360008373ffffffffffffffffffffffffffffffffffffffff1673ffffffffffffffffffffffffffffffffffffffff168152602001908152602001600020549050919050565b600061149761148a611482611df3565b600b5461261e565b611492610b6e565b612002565b905090565b600660009054906101000a900473ffffffffffffffffffffffffffffffffffffffff1681565b6000600c54141561153b576040517f08c379a00000000000000000000000000000000000000000000000000000000081526004018080602001828103825260108152602001807f726174652063616e6e6f7420626520300000000000000000000000000000000081525060200191505060405180910390fd5b80600660009054906101000a900473ffffffffffffffffffffffffffffffffffffffff1673ffffffffffffffffffffffffffffffffffffffff1663dd62ed3e33306040518363ffffffff1660e01b8152600401808373ffffffffffffffffffffffffffffffffffffffff1673ffffffffffffffffffffffffffffffffffffffff1681526020018273ffffffffffffffffffffffffffffffffffffffff1673ffffffffffffffffffffffffffffffffffffffff1681526020019250505060206040518083038186803b15801561160f57600080fd5b505afa158015611623573d6000803e3d6000fd5b505050506040513d602081101561163957600080fd5b810190808051906020019092919050505010156116be576040517f08c379a000000000000000000000000000000000000000000000000000000000815260040180806020018281038252601b8152602001807f64637a6b2f696e73756666696369656e742d616c6c6f77616e6365000000000081525060200191505060405180910390fd5b6116c6612668565b600660009054906101000a900473ffffffffffffffffffffffffffffffffffffffff1673ffffffffffffffffffffffffffffffffffffffff166323b872dd3330846040518463ffffffff1660e01b8152600401808473ffffffffffffffffffffffffffffffffffffffff1673ffffffffffffffffffffffffffffffffffffffff1681526020018373ffffffffffffffffffffffffffffffffffffffff1673ffffffffffffffffffffffffffffffffffffffff1681526020018281526020019350505050602060405180830381600087803b1580156117a357600080fd5b505af11580156117b7573d6000803e3d6000fd5b505050506040513d60208110156117cd57600080fd5b810190808051906020019092919050505050600061019061ffff1682816117f057fe5b049050600081830390506118038161276e565b6000670de0b6b3a7640000600c5483028161181a57fe5b04905080600e600082825401925050819055506118383382846128ba565b3373ffffffffffffffffffffffffffffffffffffffff167f1cbc5ab135991bd2b6a4b034a04aa2aa086dac1371cb9b16b8b5e2ed6b036bed8284604051808381526020018281526020019250505060405180910390a250505050565b600b5481565b6000600460008473ffffffffffffffffffffffffffffffffffffffff1673ffffffffffffffffffffffffffffffffffffffff16815260200190815260200160002060008373ffffffffffffffffffffffffffffffffffffffff1673ffffffffffffffffffffffffffffffffffffffff16815260200190815260200160002054905092915050565b6000600d54141561199a576040517f08c379a00000000000000000000000000000000000000000000000000000000081526004018080602001828103825260148152602001807f6d61785f726174652063616e6e6f74206265203000000000000000000000000081525060200191505060405180910390fd5b806119a5333061189a565b1015611a19576040517f08c379a000000000000000000000000000000000000000000000000000000000815260040180806020018281038252601a8152602001807f637a6b2f696e73756666696369656e742d616c6c6f77616e636500000000000081525060200191505060405180910390fd5b611a21612668565b80600e60008282540192505081905550600081905060008090506000600d5490505b6000831115611b65576000670de0b6b3a76400008260116000858152602001908152602001600020600101540281611a7757fe5b04905083811115611acd57600082670de0b6b3a7640000860281611a9757fe5b04905080601160008581526020019081526020016000206001016000828254039250508190555080840193506000945050611b27565b8084039350601160008381526020019081526020016000206001015483019250600060116000848152602001908152602001600020600101819055506011600083815260200190815260200160002060000154600d819055505b6000601160008481526020019081526020016000206000015414611b5f57601160008381526020019081526020016000206000015491505b50611a43565b611b70338584612e92565b3373ffffffffffffffffffffffffffffffffffffffff167fed7a144fad14804d5c249145e3e0e2b63a9eb455b76aee5bc92d711e9bba3e4a8584604051808381526020018281526020019250505060405180910390a250505050565b600d5481565b60116020528060005260406000206000915090508060000154908060010154905082565b600a5481565b600073ffffffffffffffffffffffffffffffffffffffff168373ffffffffffffffffffffffffffffffffffffffff161415611c82576040517f08c379a00000000000000000000000000000000000000000000000000000000081526004018080602001828103825260248152602001806138166024913960400191505060405180910390fd5b600073ffffffffffffffffffffffffffffffffffffffff168273ffffffffffffffffffffffffffffffffffffffff161415611d08576040517f08c379a000000000000000000000000000000000000000000000000000000000815260040180806020018281038252602281526020018061373c6022913960400191505060405180910390fd5b80600460008573ffffffffffffffffffffffffffffffffffffffff1673ffffffffffffffffffffffffffffffffffffffff16815260200190815260200160002060008473ffffffffffffffffffffffffffffffffffffffff1673ffffffffffffffffffffffffffffffffffffffff168152602001908152602001600020819055508173ffffffffffffffffffffffffffffffffffffffff168373ffffffffffffffffffffffffffffffffffffffff167f8c5be1e5ebec7d5bd14f71427d1e84f3dd0314c0f7b2291e5b200ac8c7c3b925836040518082815260200191505060405180910390a3505050565b6000611ffd611f55600960009054906101000a900473ffffffffffffffffffffffffffffffffffffffff1673ffffffffffffffffffffffffffffffffffffffff1663487bf0826040518163ffffffff1660e01b815260040160206040518083038186803b158015611e6357600080fd5b505afa158015611e77573d6000803e3d6000fd5b505050506040513d6020811015611e8d57600080fd5b8101908080519060200190929190505050600960009054906101000a900473ffffffffffffffffffffffffffffffffffffffff1673ffffffffffffffffffffffffffffffffffffffff166320aba08b6040518163ffffffff1660e01b815260040160206040518083038186803b158015611f0657600080fd5b505afa158015611f1a573d6000803e3d6000fd5b505050506040513d6020811015611f3057600080fd5b810190808051906020019092919050505042036b033b2e3c9fd0803ce800000061359f565b600960009054906101000a900473ffffffffffffffffffffffffffffffffffffffff1673ffffffffffffffffffffffffffffffffffffffff1663c92aecc46040518163ffffffff1660e01b815260040160206040518083038186803b158015611fbd57600080fd5b505afa158015611fd1573d6000803e3d6000fd5b505050506040513d6020811015611fe757600080fd5b8101908080519060200190929190505050612002565b905090565b60006b033b2e3c9fd0803ce800000061201b8484613665565b8161202257fe5b04905092915050565b600073ffffffffffffffffffffffffffffffffffffffff168373ffffffffffffffffffffffffffffffffffffffff1614156120b1576040517f08c379a00000000000000000000000000000000000000000000000000000000081526004018080602001828103825260258152602001806137f16025913960400191505060405180910390fd5b600073ffffffffffffffffffffffffffffffffffffffff168273ffffffffffffffffffffffffffffffffffffffff161415612137576040517f08c379a00000000000000000000000000000000000000000000000000000000081526004018080602001828103825260238152602001806136f76023913960400191505060405180910390fd5b6000600960009054906101000a900473ffffffffffffffffffffffffffffffffffffffff1673ffffffffffffffffffffffffffffffffffffffff166320aba08b6040518163ffffffff1660e01b815260040160206040518083038186803b1580156121a157600080fd5b505afa1580156121b5573d6000803e3d6000fd5b505050506040513d60208110156121cb57600080fd5b8101908080519060200190929190505050421161228a57600960009054906101000a900473ffffffffffffffffffffffffffffffffffffffff1673ffffffffffffffffffffffffffffffffffffffff1663c92aecc46040518163ffffffff1660e01b815260040160206040518083038186803b15801561224a57600080fd5b505afa15801561225e573d6000803e3d6000fd5b505050506040513d602081101561227457600080fd5b8101908080519060200190929190505050612330565b600960009054906101000a900473ffffffffffffffffffffffffffffffffffffffff1673ffffffffffffffffffffffffffffffffffffffff16639f678cca6040518163ffffffff1660e01b8152600401602060405180830381600087803b1580156122f457600080fd5b505af1158015612308573d6000803e3d6000fd5b505050506040513d602081101561231e57600080fd5b81019080805190602001909291905050505b9050600061233e8383613691565b90506123a2600360008773ffffffffffffffffffffffffffffffffffffffff1673ffffffffffffffffffffffffffffffffffffffff168152602001908152602001600020548260405180606001604052806026815260200161375e6026913961254a565b600360008773ffffffffffffffffffffffffffffffffffffffff1673ffffffffffffffffffffffffffffffffffffffff1681526020019081526020016000208190555061242e600360008673ffffffffffffffffffffffffffffffffffffffff1673ffffffffffffffffffffffffffffffffffffffff1681526020019081526020016000205482612604565b600360008673ffffffffffffffffffffffffffffffffffffffff1673ffffffffffffffffffffffffffffffffffffffff168152602001908152602001600020819055508373ffffffffffffffffffffffffffffffffffffffff168573ffffffffffffffffffffffffffffffffffffffff167fddf252ad1be2c89b69c2b068fc378daa952ba7f163c4a11628f55a4df523b3ef856040518082815260200191505060405180910390a38373ffffffffffffffffffffffffffffffffffffffff168573ffffffffffffffffffffffffffffffffffffffff167f76226d0a6dda3da2d0025b322e0655e22929da69023826c86bf77a55bd047b488386604051808381526020018281526020019250505060405180910390a35050505050565b600083838503915081111582906125fc576040517f08c379a00000000000000000000000000000000000000000000000000000000081526004018080602001828103825283818151815260200191508051906020019080838360005b838110156125c15780820151818401526020810190506125a6565b50505050905090810190601f1680156125ee5780820380516001836020036101000a031916815260200191505b509250505060405180910390fd5b509392505050565b600082828401915081101561261857600080fd5b92915050565b600061266083836040518060400160405280601e81526020017f536166654d6174683a207375627472616374696f6e206f766572666c6f77000081525061254a565b905092915050565b600a544210156126e0576040517f08c379a00000000000000000000000000000000000000000000000000000000081526004018080602001828103825260108152602001807f64637a6b2f696e76616c69642d6e6f770000000000000000000000000000000081525060200191505060405180910390fd5b60006126ea611df3565b905060006126fa82600b5461261e565b905081600b8190555042600a81905550600061271d82612718610b6e565b612002565b90506127288161276e565b7fcb1652de9aeec38545fc281847b3dbfc89aab56dfa907b1ab68466f602c36fb4600c5482604051808381526020018281526020019250505060405180910390a1505050565b600060116000600c5481526020019081526020016000206001015414801561279957506000600d5414155b1561287b576000600d54905060008090505b600c5482106127fd5781905060006011600084815260200190815260200160002060000154146127f357601160008381526020019081526020016000206000015491506127f8565b600091505b6127ab565b600c54821461287857600081141561283c57600d5460116000600c54815260200190815260200160002060000181905550600c54600d81905550612877565b600c5460116000838152602001908152602001600020600001819055508160116000600c548152602001908152602001600020600001819055505b5b50505b600c54600d54101561289157600c54600d819055505b8060116000600c5481526020019081526020016000206001016000828254019250508190555050565b600073ffffffffffffffffffffffffffffffffffffffff168373ffffffffffffffffffffffffffffffffffffffff16141561295d576040517f08c379a000000000000000000000000000000000000000000000000000000000815260040180806020018281038252601f8152602001807f45524332303a206d696e7420746f20746865207a65726f20616464726573730081525060200191505060405180910390fd5b6000600960009054906101000a900473ffffffffffffffffffffffffffffffffffffffff1673ffffffffffffffffffffffffffffffffffffffff166320aba08b6040518163ffffffff1660e01b815260040160206040518083038186803b1580156129c757600080fd5b505afa1580156129db573d6000803e3d6000fd5b505050506040513d60208110156129f157600080fd5b81019080805190602001909291905050504211612ab057600960009054906101000a900473ffffffffffffffffffffffffffffffffffffffff1673ffffffffffffffffffffffffffffffffffffffff1663c92aecc46040518163ffffffff1660e01b815260040160206040518083038186803b158015612a7057600080fd5b505afa158015612a84573d6000803e3d6000fd5b505050506040513d6020811015612a9a57600080fd5b8101908080519060200190929190505050612b56565b600960009054906101000a900473ffffffffffffffffffffffffffffffffffffffff1673ffffffffffffffffffffffffffffffffffffffff16639f678cca6040518163ffffffff1660e01b8152600401602060405180830381600087803b158015612b1a57600080fd5b505af1158015612b2e573d6000803e3d6000fd5b505050506040513d6020811015612b4457600080fd5b81019080805190602001909291905050505b90506000612b648383613691565b9050600860009054906101000a900473ffffffffffffffffffffffffffffffffffffffff1673ffffffffffffffffffffffffffffffffffffffff16633b4da69f30856040518363ffffffff1660e01b8152600401808373ffffffffffffffffffffffffffffffffffffffff1673ffffffffffffffffffffffffffffffffffffffff16815260200182815260200192505050600060405180830381600087803b158015612c0f57600080fd5b505af1158015612c23573d6000803e3d6000fd5b50505050600960009054906101000a900473ffffffffffffffffffffffffffffffffffffffff1673ffffffffffffffffffffffffffffffffffffffff1663049878f3826040518263ffffffff1660e01b815260040180828152602001915050600060405180830381600087803b158015612c9c57600080fd5b505af1158015612cb0573d6000803e3d6000fd5b505050506000612cc08584613691565b9050612cce60055482612604565b600581905550612d1d600360008873ffffffffffffffffffffffffffffffffffffffff1673ffffffffffffffffffffffffffffffffffffffff1681526020019081526020016000205482612604565b600360008873ffffffffffffffffffffffffffffffffffffffff1673ffffffffffffffffffffffffffffffffffffffff168152602001908152602001600020819055508573ffffffffffffffffffffffffffffffffffffffff16600073ffffffffffffffffffffffffffffffffffffffff167fddf252ad1be2c89b69c2b068fc378daa952ba7f163c4a11628f55a4df523b3ef876040518082815260200191505060405180910390a38573ffffffffffffffffffffffffffffffffffffffff16600073ffffffffffffffffffffffffffffffffffffffff167f76226d0a6dda3da2d0025b322e0655e22929da69023826c86bf77a55bd047b488388604051808381526020018281526020019250505060405180910390a38573ffffffffffffffffffffffffffffffffffffffff167f4c209b5fc8ad50758f13e2e1088ba56a560dff690a1c6fef26394f4c03821c4f8683604051808381526020018281526020019250505060405180910390a2505050505050565b600073ffffffffffffffffffffffffffffffffffffffff168373ffffffffffffffffffffffffffffffffffffffff161415612f18576040517f08c379a00000000000000000000000000000000000000000000000000000000081526004018080602001828103825260218152602001806137d06021913960400191505060405180910390fd5b81612f2284611057565b1015612f96576040517f08c379a00000000000000000000000000000000000000000000000000000000081526004018080602001828103825260198152602001807f64637a6b2f696e73756666696369656e742d62616c616e63650000000000000081525060200191505060405180910390fd5b6000600960009054906101000a900473ffffffffffffffffffffffffffffffffffffffff1673ffffffffffffffffffffffffffffffffffffffff166320aba08b6040518163ffffffff1660e01b815260040160206040518083038186803b15801561300057600080fd5b505afa158015613014573d6000803e3d6000fd5b505050506040513d602081101561302a57600080fd5b810190808051906020019092919050505042116130e957600960009054906101000a900473ffffffffffffffffffffffffffffffffffffffff1673ffffffffffffffffffffffffffffffffffffffff1663c92aecc46040518163ffffffff1660e01b815260040160206040518083038186803b1580156130a957600080fd5b505afa1580156130bd573d6000803e3d6000fd5b505050506040513d60208110156130d357600080fd5b810190808051906020019092919050505061318f565b600960009054906101000a900473ffffffffffffffffffffffffffffffffffffffff1673ffffffffffffffffffffffffffffffffffffffff16639f678cca6040518163ffffffff1660e01b8152600401602060405180830381600087803b15801561315357600080fd5b505af1158015613167573d6000803e3d6000fd5b505050506040513d602081101561317d57600080fd5b81019080805190602001909291905050505b9050600061319d84836136ba565b9050613201600360008773ffffffffffffffffffffffffffffffffffffffff1673ffffffffffffffffffffffffffffffffffffffff168152602001908152602001600020548260405180606001604052806022815260200161371a6022913961254a565b600360008773ffffffffffffffffffffffffffffffffffffffff1673ffffffffffffffffffffffffffffffffffffffff168152602001908152602001600020819055506132506005548261261e565b600581905550600061326284846136ba565b9050600081146133c457600960009054906101000a900473ffffffffffffffffffffffffffffffffffffffff1673ffffffffffffffffffffffffffffffffffffffff16637f8661a1826040518263ffffffff1660e01b815260040180828152602001915050600060405180830381600087803b1580156132e157600080fd5b505af11580156132f5573d6000803e3d6000fd5b50505050600860009054906101000a900473ffffffffffffffffffffffffffffffffffffffff1673ffffffffffffffffffffffffffffffffffffffff1663ef693bed336133428685612002565b6040518363ffffffff1660e01b8152600401808373ffffffffffffffffffffffffffffffffffffffff1673ffffffffffffffffffffffffffffffffffffffff16815260200182815260200192505050600060405180830381600087803b1580156133ab57600080fd5b505af11580156133bf573d6000803e3d6000fd5b505050505b61346d8633613468600460008b73ffffffffffffffffffffffffffffffffffffffff1673ffffffffffffffffffffffffffffffffffffffff16815260200190815260200160002060003373ffffffffffffffffffffffffffffffffffffffff1673ffffffffffffffffffffffffffffffffffffffff16815260200190815260200160002054896040518060600160405280602481526020016137ac6024913961254a565b611bfc565b600073ffffffffffffffffffffffffffffffffffffffff168673ffffffffffffffffffffffffffffffffffffffff167fddf252ad1be2c89b69c2b068fc378daa952ba7f163c4a11628f55a4df523b3ef876040518082815260200191505060405180910390a3600073ffffffffffffffffffffffffffffffffffffffff168673ffffffffffffffffffffffffffffffffffffffff167f76226d0a6dda3da2d0025b322e0655e22929da69023826c86bf77a55bd047b488488604051808381526020018281526020019250505060405180910390a38573ffffffffffffffffffffffffffffffffffffffff167f49995e5dd6158cf69ad3e9777c46755a1a826a446c6416992167462dad033b2a8684604051808381526020018281526020019250505060405180910390a2505050505050565b600083600081146136455760028406600081146135be578592506135c2565b8392505b50600283046002850494505b841561363f5785860286878204146135e557600080fd5b818101818110156135f557600080fd5b8581049750600287061561363257878502858982041415891515161561361a57600080fd5b8381018181101561362a57600080fd5b878104965050505b50506002850494506135ce565b5061365d565b8360008114613657576000925061365b565b8392505b505b509392505050565b600080821480613682575082828385029250828161367f57fe5b04145b61368b57600080fd5b92915050565b6000816136aa846b033b2e3c9fd0803ce8000000613665565b816136b157fe5b04905092915050565b6000816136e66136d6856b033b2e3c9fd0803ce8000000613665565b6136e185600161261e565b612604565b816136ed57fe5b0490509291505056fe45524332303a207472616e7366657220746f20746865207a65726f206164647265737345524332303a206275726e20616d6f756e7420657863656564732062616c616e636545524332303a20617070726f766520746f20746865207a65726f206164647265737345524332303a207472616e7366657220616d6f756e7420657863656564732062616c616e636545524332303a207472616e7366657220616d6f756e74206578636565647320616c6c6f77616e636545524332303a206275726e20616d6f756e74206578636565647320616c6c6f77616e636545524332303a206275726e2066726f6d20746865207a65726f206164647265737345524332303a207472616e736665722066726f6d20746865207a65726f206164647265737345524332303a20617070726f76652066726f6d20746865207a65726f206164647265737345524332303a2064656372656173656420616c6c6f77616e63652062656c6f77207a65726fa265627a7a7231582035eb0bc9060456942c2a91340ed3a5f43dcf2c26a83ceb491f1836c1e397565d64736f6c63430005100032",
  "source": "/// DCZK.sol -- CZK Decentralized Stablecoin\n\npragma solidity ^0.5.16;\n\ninterface IERC20 {\n    function totalSupply() external view returns (uint256);\n    function balanceOf(address account) external view returns (uint256);\n    function transfer(address recipient, uint256 amount) external returns (bool);\n    function allowance(address owner, address spender) external view returns (uint256);\n    function approve(address spender, uint256 amount) external returns (bool);\n    function transferFrom(address sender, address recipient, uint256 amount) external returns (bool);\n    event Transfer(address indexed from, address indexed to, uint256 value);\n    event Approval(address indexed owner, address indexed spender, uint256 value);\n}\n\ninterface IVat {\n    function hope(address) external;\n}\n\ninterface IDaiJoin {\n    function join(address, uint) external;\n    function exit(address, uint) external;\n}\n\ninterface IPot {\n    function chi() external view returns (uint256);\n    function rho() external view returns (uint256);\n    function dsr() external view returns (uint256);\n    function pie(address) external view returns (uint256);\n    function drip() external returns (uint256);\n    function join(uint256) external;\n    function exit(uint256) external;\n}\n\ncontract DCZK is IERC20 {\n\n    // --- ERC20 Events ---\n    event Transfer(address indexed from, address indexed to, uint256 value);\n    event Approval(address indexed owner, address indexed spender, uint256 value);\n\n    // --- Other events ---\n    event TransferPrincipal(address indexed from, address indexed to, uint256 principal, uint256 value);\n    event Mint(address indexed to, uint256 amount, uint256 principal);\n    event Burn(address indexed burner, uint256 amount, uint256 principal);\n    event Buy(address indexed buyer, uint256 dczk, uint256 dai);\n    event Sell(address indexed seller, uint256 dczk, uint256 dai);\n    event AddLiquidity(uint256 rate, uint256 amount);\n    event RateUpdate(uint256 rate, address caller);\n\n    // --- ERC20 basic vars ---\n    string private _name = \"dCZK Test v0.2\";\n    string private _symbol = \"dCZK02\";\n    uint8 private _decimals = 18;\n    mapping (address => uint256) private _balances;\n    mapping (address => mapping (address => uint256)) private _allowances;\n    uint256 private _totalSupply;\n\n    // --- Data ---\n    IERC20 public depositToken;\n    IVat public vat;\n    IDaiJoin public daiJoin;\n    IPot public pot;\n    uint256 public lrho;\n    uint256 public lchi;\n    uint256 public rate = 22000000000000000000;  // basic CZKDAI rate\n    uint256 public maxRate;\n    uint256 public totalVolume;\n    uint public lastUpdate;\n\n    // fixed oracleAdress - will be not included in mainnet release\n    address public oracleAddress = 0x89188bE35B16AF852dC0A4a9e47e0cA871fadf9a;\n\n    uint16 constant fee = 400;  // 0.25%\n\n    struct Thread {\n        uint next;\n        uint amount;\n    }\n    mapping(uint => Thread) public txs;\n\n\n    // --- Init ---\n    constructor (address _dai, address _vat, address _daiJoin, address _pot) public {\n        // set DAI address\n        depositToken = IERC20(_dai);\n\n        // DSR - DAI Savings Rate\n        daiJoin = IDaiJoin(_daiJoin);\n        vat = IVat(_vat);\n        pot = IPot(_pot);\n        // pot = new Pot(address(this));           // MakerDAO DSR `pot` (for testing purposes)\n        vat.hope(address(daiJoin));\n        vat.hope(address(pot));\n\n        depositToken.approve(address(daiJoin), uint(-1));\n    }\n\n    // --- Math ---\n    // Taken from official DSR contract:\n    // https://github.com/makerdao/dss/blob/master/src/pot.sol\n\n    uint constant RAY = 10 ** 27;\n    function rpow(uint x, uint n, uint base) internal pure returns (uint z) {\n        assembly {\n            switch x case 0 {switch n case 0 {z := base} default {z := 0}}\n            default {\n                switch mod(n, 2) case 0 { z := base } default { z := x }\n                let half := div(base, 2)  // for rounding.\n                for { n := div(n, 2) } n { n := div(n,2) } { // solium-disable-line\n                    let xx := mul(x, x)\n                    if iszero(eq(div(xx, x), x)) { revert(0,0) }\n                    let xxRound := add(xx, half)\n                    if lt(xxRound, xx) { revert(0,0) }\n                    x := div(xxRound, base)\n                    if mod(n,2) {\n                        let zx := mul(z, x)\n                        if and(iszero(iszero(x)), iszero(eq(div(zx, x), z))) { revert(0,0) }\n                        let zxRound := add(zx, half)\n                        if lt(zxRound, zx) { revert(0,0) }\n                        z := div(zxRound, base)\n                    }\n                }\n            }\n        }\n    }\n\n    function add(uint x, uint y) internal pure returns (uint z) {\n        require((z = x + y) >= x);\n    }\n\n    function sub(uint x, uint y) internal pure returns (uint z) {\n        return sub(x, y, \"SafeMath: subtraction overflow\");\n    }\n\n    function sub(uint x, uint y, string memory err) internal pure returns (uint z) {\n        require((z = x - y) <= x, err);\n    }\n\n    function mul(uint x, uint y) internal pure returns (uint z) {\n        require(y == 0 || (z = x * y) / y == x);\n    }\n\n    function rmul(uint x, uint y) internal pure returns (uint z) {\n        // always rounds down\n        z = mul(x, y) / RAY;\n    }\n\n    function rdiv(uint x, uint y) internal pure returns (uint z) {\n        // always rounds down\n        z = mul(x, RAY) / y;\n    }\n\n    function rdivup(uint x, uint y) internal pure returns (uint z) {\n        // always rounds up\n        z = add(mul(x, RAY), sub(y, 1)) / y;\n    }\n\n    // --- ERC20 Token ---\n\n    function name() public view returns (string memory) {\n        return _name;\n    }\n\n    function symbol() public view returns (string memory) {\n        return _symbol;\n    }\n\n    function decimals() public view returns (uint8) {\n        return _decimals;\n    }\n\n    function totalSupply() public view returns (uint256) {\n        return rmul(_chi(), _totalSupply);\n    }\n\n    function balanceOf(address account) public view returns (uint) {\n        return rmul(_chi(), _balances[account]);\n    }\n\n    function transfer(address recipient, uint256 amount) public returns (bool) {\n        _transfer(msg.sender, recipient, amount);\n        return true;\n    }\n\n    function allowance(address owner, address spender) public view returns (uint256) {\n        return _allowances[owner][spender];\n    }\n\n    function approve(address spender, uint256 amount) public returns (bool) {\n        _approve(msg.sender, spender, amount);\n        return true;\n    }\n\n    function transferFrom(address sender, address recipient, uint256 amount) public returns (bool) {\n        _transfer(sender, recipient, amount);\n        _approve(sender, msg.sender, sub(_allowances[sender][msg.sender], amount, \"ERC20: transfer amount exceeds allowance\"));\n        return true;\n    }\n\n    function increaseAllowance(address spender, uint256 addedValue) public returns (bool) {\n        _approve(msg.sender, spender, add(_allowances[msg.sender][spender], addedValue));\n        return true;\n    }\n\n    function decreaseAllowance(address spender, uint256 subtractedValue) public returns (bool) {\n        _approve(msg.sender, spender, sub(_allowances[msg.sender][spender], subtractedValue, \"ERC20: decreased allowance below zero\"));\n        return true;\n    }\n\n    function _transfer(address sender, address recipient, uint256 amount) internal {\n        require(sender != address(0), \"ERC20: transfer from the zero address\");\n        require(recipient != address(0), \"ERC20: transfer to the zero address\");\n\n        uint256 chi = (now > pot.rho()) ? pot.drip() : pot.chi();\n        uint pie = rdiv(amount, chi);\n\n        _balances[sender] = sub(_balances[sender], pie, \"ERC20: transfer amount exceeds balance\");\n        _balances[recipient] = add(_balances[recipient], pie);\n\n        emit Transfer(sender, recipient, amount);\n        emit TransferPrincipal(sender, recipient, pie, amount);\n    }\n\n    function _approve(address owner, address spender, uint256 amount) internal {\n        require(owner != address(0), \"ERC20: approve from the zero address\");\n        require(spender != address(0), \"ERC20: approve to the zero address\");\n\n        _allowances[owner][spender] = amount;\n        emit Approval(owner, spender, amount);\n    }\n\n    // --- Principal balances ---\n\n    function principalBalanceOf(address account) public view returns (uint) {\n        return _balances[account];\n    }\n\n    function principalTotalSupply() public view returns (uint256) {\n        return _totalSupply;\n    }\n\n    // --- DSR (DAI Savings rate) integration ---\n\n    function _chi() internal view returns (uint) {\n        return rmul(rpow(pot.dsr(), now - pot.rho(), RAY), pot.chi());\n    }\n\n    function _drip() internal {\n        require(now >= lrho, \"dczk/invalid-now\");\n        uint tmp = _chi();\n        uint chi_ = sub(tmp, lchi);\n        lchi = tmp;\n        lrho = now;\n        uint amount = rmul(chi_, principalPotSupply());\n        _addLiquidity(amount);\n        emit AddLiquidity(rate, amount);\n    }\n\n    function potDrip() public view returns (uint) {\n        return rmul(sub(_chi(), lchi), principalPotSupply());\n    }\n\n    function potSupply() public view returns (uint256) {\n        return rmul(_chi(), pot.pie(address(this)));\n    }\n\n    function principalPotSupply() public view returns (uint256) {\n        return pot.pie(address(this));\n    }\n\n    // --- Minting (internal) ---\n\n    function _mint(address dst, uint256 czk, uint256 dai) private {\n        require(dst != address(0), \"ERC20: mint to the zero address\");\n\n        uint256 chi = (now > pot.rho()) ? pot.drip() : pot.chi();\n        uint pie = rdiv(dai, chi);\n        daiJoin.join(address(this), dai);\n        pot.join(pie);\n        uint spie = rdiv(czk, chi);\n\n        _totalSupply = add(_totalSupply, spie);\n        _balances[dst] = add(_balances[dst], spie);\n\n        emit Transfer(address(0), dst, czk);\n        emit TransferPrincipal(address(0), dst, spie, czk);\n        emit Mint(dst, czk, spie);\n    }\n\n    // --- Burning (internal) ---\n\n    function _burn(address src, uint256 czk, uint256 dai) private {\n        require(src != address(0), \"ERC20: burn from the zero address\");\n        require(balanceOf(src) >= czk, \"dczk/insufficient-balance\");\n\n        uint chi = (now > pot.rho()) ? pot.drip() : pot.chi();\n        uint spie = rdivup(czk, chi);\n\n        _balances[src] = sub(_balances[src], spie, \"ERC20: burn amount exceeds balance\");\n        _totalSupply = sub(_totalSupply, spie);\n\n        uint pie = rdivup(dai, chi);\n        if (pie != 0) {\n            pot.exit(pie);\n            daiJoin.exit(msg.sender, rmul(chi, pie));\n        }\n\n        _approve(src, msg.sender, sub(_allowances[src][msg.sender], czk, \"ERC20: burn amount exceeds allowance\"));\n        emit Transfer(src, address(0), czk);\n        emit TransferPrincipal(src, address(0), spie, czk);\n        emit Burn(src, czk, spie);\n    }\n\n    // --- DEX Decentralized exchange ---\n\n    function _addLiquidity(uint256 amount) internal {\n        if (txs[rate].amount == 0 && maxRate != 0) {\n            uint currentRate = maxRate;\n            uint prevRate = 0;\n            while (currentRate >= rate){\n                prevRate = currentRate;\n                if (txs[currentRate].next != 0) {\n                    currentRate = txs[currentRate].next;\n                } else {\n                    currentRate = 0;\n                }\n            }\n            if (currentRate != rate) {\n                if (prevRate == 0) {\n                    txs[rate].next = maxRate;\n                    maxRate = rate;\n                } else {\n                    txs[prevRate].next = rate;\n                    txs[rate].next = currentRate;\n                }\n            }\n        }\n        if (maxRate < rate) {\n            maxRate = rate;\n        }\n        txs[rate].amount += amount;\n    }\n\n    function buy(uint256 amount) public {\n        require(rate != 0, \"rate cannot be 0\");\n        require(depositToken.allowance(msg.sender, address(this)) >= amount, \"dczk/insufficient-allowance\");\n        _drip();\n\n        // transfer DAI to this contract\n        depositToken.transferFrom(msg.sender, address(this), amount);\n\n        // calculate fee - 0.25%\n        uint _fee = amount / fee;\n        uint rest = amount - _fee;\n        // TODO - do something with the fee - now its freezed on contract forever\n\n        // add liquidity to dex\n        _addLiquidity(rest);\n\n        // convert to stablecoin amount\n        uint _converted = (rest * rate) / 10 ** 18;\n\n        // save amount to total volume\n        totalVolume += _converted;\n\n        // mint tokens\n        _mint(address(msg.sender), _converted, rest);\n\n        emit Buy(msg.sender, _converted, rest);\n    }\n\n    function sell(uint256 amount) public {\n        require(maxRate != 0, \"max_rate cannot be 0\");\n        require(allowance(msg.sender, address(this)) >= amount, \"czk/insufficient-allowance\");\n        _drip();\n\n        // update total volume\n        totalVolume += amount;\n\n        // calculate rate & deposit\n        uint _amount = amount;\n        uint deposit = 0;\n        uint currentRate = maxRate;\n        while (_amount > 0) {\n            uint full = (txs[currentRate].amount * currentRate) / 10 ** 18;\n            if (full > _amount) {\n                uint partialAmount = _amount * 10 ** 18 / currentRate;\n                txs[currentRate].amount -= partialAmount;\n                deposit += partialAmount;\n                _amount = 0;\n            } else {\n                _amount -= full;\n                deposit += txs[currentRate].amount;\n                txs[currentRate].amount = 0;\n                maxRate = txs[currentRate].next;\n            }\n            if (txs[currentRate].next != 0) {\n                currentRate = txs[currentRate].next;\n            }\n        }\n        // burn coins\n        _burn(msg.sender, amount, deposit);\n\n        emit Sell(msg.sender, amount, deposit);\n    }\n\n    function getThreads() public view returns(uint[] memory rates, uint[] memory amounts) {\n        uint len = 0;\n        if (maxRate != 0) {\n            len += 1;\n            uint currentRate = maxRate;\n            while (txs[currentRate].next != 0) {\n                len += 1;\n                currentRate = txs[currentRate].next;\n            }\n            currentRate = maxRate;\n            rates = new uint[](len);\n            amounts = new uint[](len);\n            amounts[0] = txs[currentRate].amount;\n            rates[0] = currentRate;\n            len = 0;\n            while (txs[currentRate].next != 0 && len > 9) {\n                len += 1;\n                currentRate = txs[currentRate].next;\n                rates[len] = currentRate;\n                amounts[len] = txs[currentRate].amount;\n            }\n        }\n    }\n\n    // --- Oracle ---\n\n    function updateRate(uint _rate) public {\n        // TODO implement Chainlink or other oracle\n        require(msg.sender == oracleAddress, \"dczk/permission-denied\");\n        rate = _rate;\n        lastUpdate = now;\n        emit RateUpdate(rate, msg.sender);\n    }\n}\n",
  "sourcePath": "/Users/tree/Projects/dczk/contracts/DCZK.sol",
  "compiler": {
    "name": "solc",
    "version": "0.5.16+commit.9c3226ce.Emscripten.clang"
  },
  "schemaVersion": "3.0.23",
  "updatedAt": "2020-02-12T11:09:31.576Z",
  "devdoc": {
    "methods": {}
  },
  "userdoc": {
    "methods": {}
  }
}