{
  "contractName": "DCZK",
  "abi": [
    {
      "inputs": [
        {
          "internalType": "address",
          "name": "_oracle",
          "type": "address"
        }
      ],
      "payable": false,
      "stateMutability": "nonpayable",
      "type": "constructor"
    },
    {
      "anonymous": false,
      "inputs": [
        {
          "indexed": false,
          "internalType": "uint256",
          "name": "rate",
          "type": "uint256"
        },
        {
          "indexed": false,
          "internalType": "uint256",
          "name": "amount",
          "type": "uint256"
        }
      ],
      "name": "AddLiquidity",
      "type": "event"
    },
    {
      "anonymous": false,
      "inputs": [
        {
          "indexed": true,
          "internalType": "address",
          "name": "owner",
          "type": "address"
        },
        {
          "indexed": true,
          "internalType": "address",
          "name": "spender",
          "type": "address"
        },
        {
          "indexed": false,
          "internalType": "uint256",
          "name": "value",
          "type": "uint256"
        }
      ],
      "name": "Approval",
      "type": "event"
    },
    {
      "anonymous": false,
      "inputs": [
        {
          "indexed": true,
          "internalType": "address",
          "name": "burner",
          "type": "address"
        },
        {
          "indexed": false,
          "internalType": "uint256",
          "name": "amount",
          "type": "uint256"
        },
        {
          "indexed": false,
          "internalType": "uint256",
          "name": "principal",
          "type": "uint256"
        }
      ],
      "name": "Burn",
      "type": "event"
    },
    {
      "anonymous": false,
      "inputs": [
        {
          "indexed": true,
          "internalType": "address",
          "name": "buyer",
          "type": "address"
        },
        {
          "indexed": false,
          "internalType": "uint256",
          "name": "dczk",
          "type": "uint256"
        },
        {
          "indexed": false,
          "internalType": "uint256",
          "name": "dai",
          "type": "uint256"
        }
      ],
      "name": "Buy",
      "type": "event"
    },
    {
      "anonymous": false,
      "inputs": [
        {
          "indexed": true,
          "internalType": "address",
          "name": "buyer",
          "type": "address"
        },
        {
          "indexed": false,
          "internalType": "uint256",
          "name": "dczk",
          "type": "uint256"
        },
        {
          "indexed": false,
          "internalType": "uint256",
          "name": "dai",
          "type": "uint256"
        },
        {
          "indexed": false,
          "internalType": "uint256",
          "name": "eth",
          "type": "uint256"
        }
      ],
      "name": "BuyWithEther",
      "type": "event"
    },
    {
      "anonymous": false,
      "inputs": [
        {
          "indexed": false,
          "internalType": "uint8",
          "name": "key",
          "type": "uint8"
        },
        {
          "indexed": false,
          "internalType": "bytes32",
          "name": "val",
          "type": "bytes32"
        }
      ],
      "name": "Cast",
      "type": "event"
    },
    {
      "anonymous": false,
      "inputs": [
        {
          "indexed": true,
          "internalType": "address",
          "name": "to",
          "type": "address"
        },
        {
          "indexed": false,
          "internalType": "uint256",
          "name": "amount",
          "type": "uint256"
        },
        {
          "indexed": false,
          "internalType": "uint256",
          "name": "principal",
          "type": "uint256"
        }
      ],
      "name": "Mint",
      "type": "event"
    },
    {
      "anonymous": false,
      "inputs": [
        {
          "indexed": true,
          "internalType": "address",
          "name": "seller",
          "type": "address"
        },
        {
          "indexed": false,
          "internalType": "uint256",
          "name": "dczk",
          "type": "uint256"
        },
        {
          "indexed": false,
          "internalType": "uint256",
          "name": "dai",
          "type": "uint256"
        }
      ],
      "name": "Sell",
      "type": "event"
    },
    {
      "anonymous": false,
      "inputs": [
        {
          "indexed": true,
          "internalType": "address",
          "name": "seller",
          "type": "address"
        },
        {
          "indexed": false,
          "internalType": "uint256",
          "name": "dczk",
          "type": "uint256"
        },
        {
          "indexed": false,
          "internalType": "uint256",
          "name": "dai",
          "type": "uint256"
        },
        {
          "indexed": false,
          "internalType": "uint256",
          "name": "eth",
          "type": "uint256"
        }
      ],
      "name": "SellForEther",
      "type": "event"
    },
    {
      "anonymous": false,
      "inputs": [
        {
          "indexed": true,
          "internalType": "address",
          "name": "from",
          "type": "address"
        },
        {
          "indexed": true,
          "internalType": "address",
          "name": "to",
          "type": "address"
        },
        {
          "indexed": false,
          "internalType": "uint256",
          "name": "value",
          "type": "uint256"
        }
      ],
      "name": "Transfer",
      "type": "event"
    },
    {
      "anonymous": false,
      "inputs": [
        {
          "indexed": true,
          "internalType": "address",
          "name": "from",
          "type": "address"
        },
        {
          "indexed": true,
          "internalType": "address",
          "name": "to",
          "type": "address"
        },
        {
          "indexed": false,
          "internalType": "uint256",
          "name": "principal",
          "type": "uint256"
        },
        {
          "indexed": false,
          "internalType": "uint256",
          "name": "value",
          "type": "uint256"
        }
      ],
      "name": "TransferPrincipal",
      "type": "event"
    },
    {
      "payable": true,
      "stateMutability": "payable",
      "type": "fallback"
    },
    {
      "constant": true,
      "inputs": [],
      "name": "cap",
      "outputs": [
        {
          "internalType": "uint256",
          "name": "",
          "type": "uint256"
        }
      ],
      "payable": false,
      "stateMutability": "view",
      "type": "function"
    },
    {
      "constant": true,
      "inputs": [],
      "name": "dai",
      "outputs": [
        {
          "internalType": "contract IERC20",
          "name": "",
          "type": "address"
        }
      ],
      "payable": false,
      "stateMutability": "view",
      "type": "function"
    },
    {
      "constant": true,
      "inputs": [],
      "name": "daiExchange",
      "outputs": [
        {
          "internalType": "contract UniswapExchangeInterface",
          "name": "",
          "type": "address"
        }
      ],
      "payable": false,
      "stateMutability": "view",
      "type": "function"
    },
    {
      "constant": true,
      "inputs": [],
      "name": "daiJoin",
      "outputs": [
        {
          "internalType": "contract DaiJoin",
          "name": "",
          "type": "address"
        }
      ],
      "payable": false,
      "stateMutability": "view",
      "type": "function"
    },
    {
      "constant": true,
      "inputs": [],
      "name": "dao",
      "outputs": [
        {
          "internalType": "address",
          "name": "",
          "type": "address"
        }
      ],
      "payable": false,
      "stateMutability": "view",
      "type": "function"
    },
    {
      "constant": true,
      "inputs": [],
      "name": "decimals",
      "outputs": [
        {
          "internalType": "uint8",
          "name": "",
          "type": "uint8"
        }
      ],
      "payable": false,
      "stateMutability": "view",
      "type": "function"
    },
    {
      "constant": true,
      "inputs": [],
      "name": "fee",
      "outputs": [
        {
          "internalType": "uint256",
          "name": "",
          "type": "uint256"
        }
      ],
      "payable": false,
      "stateMutability": "view",
      "type": "function"
    },
    {
      "constant": true,
      "inputs": [],
      "name": "lchi",
      "outputs": [
        {
          "internalType": "uint256",
          "name": "",
          "type": "uint256"
        }
      ],
      "payable": false,
      "stateMutability": "view",
      "type": "function"
    },
    {
      "constant": true,
      "inputs": [],
      "name": "lrho",
      "outputs": [
        {
          "internalType": "uint256",
          "name": "",
          "type": "uint256"
        }
      ],
      "payable": false,
      "stateMutability": "view",
      "type": "function"
    },
    {
      "constant": true,
      "inputs": [],
      "name": "maxRate",
      "outputs": [
        {
          "internalType": "uint256",
          "name": "",
          "type": "uint256"
        }
      ],
      "payable": false,
      "stateMutability": "view",
      "type": "function"
    },
    {
      "constant": true,
      "inputs": [],
      "name": "name",
      "outputs": [
        {
          "internalType": "string",
          "name": "",
          "type": "string"
        }
      ],
      "payable": false,
      "stateMutability": "view",
      "type": "function"
    },
    {
      "constant": true,
      "inputs": [],
      "name": "oracle",
      "outputs": [
        {
          "internalType": "address",
          "name": "",
          "type": "address"
        }
      ],
      "payable": false,
      "stateMutability": "view",
      "type": "function"
    },
    {
      "constant": true,
      "inputs": [],
      "name": "pot",
      "outputs": [
        {
          "internalType": "contract Pot",
          "name": "",
          "type": "address"
        }
      ],
      "payable": false,
      "stateMutability": "view",
      "type": "function"
    },
    {
      "constant": true,
      "inputs": [],
      "name": "symbol",
      "outputs": [
        {
          "internalType": "string",
          "name": "",
          "type": "string"
        }
      ],
      "payable": false,
      "stateMutability": "view",
      "type": "function"
    },
    {
      "constant": true,
      "inputs": [
        {
          "internalType": "uint256",
          "name": "",
          "type": "uint256"
        }
      ],
      "name": "txs",
      "outputs": [
        {
          "internalType": "uint256",
          "name": "next",
          "type": "uint256"
        },
        {
          "internalType": "uint256",
          "name": "amount",
          "type": "uint256"
        }
      ],
      "payable": false,
      "stateMutability": "view",
      "type": "function"
    },
    {
      "constant": true,
      "inputs": [],
      "name": "unidl",
      "outputs": [
        {
          "internalType": "uint256",
          "name": "",
          "type": "uint256"
        }
      ],
      "payable": false,
      "stateMutability": "view",
      "type": "function"
    },
    {
      "constant": true,
      "inputs": [],
      "name": "unifa",
      "outputs": [
        {
          "internalType": "address",
          "name": "",
          "type": "address"
        }
      ],
      "payable": false,
      "stateMutability": "view",
      "type": "function"
    },
    {
      "constant": true,
      "inputs": [],
      "name": "unisl",
      "outputs": [
        {
          "internalType": "uint256",
          "name": "",
          "type": "uint256"
        }
      ],
      "payable": false,
      "stateMutability": "view",
      "type": "function"
    },
    {
      "constant": true,
      "inputs": [],
      "name": "uniswapFactory",
      "outputs": [
        {
          "internalType": "contract UniswapFactoryInterface",
          "name": "",
          "type": "address"
        }
      ],
      "payable": false,
      "stateMutability": "view",
      "type": "function"
    },
    {
      "constant": true,
      "inputs": [],
      "name": "vat",
      "outputs": [
        {
          "internalType": "contract Vat",
          "name": "",
          "type": "address"
        }
      ],
      "payable": false,
      "stateMutability": "view",
      "type": "function"
    },
    {
      "constant": true,
      "inputs": [],
      "name": "volume",
      "outputs": [
        {
          "internalType": "uint256",
          "name": "",
          "type": "uint256"
        }
      ],
      "payable": false,
      "stateMutability": "view",
      "type": "function"
    },
    {
      "constant": true,
      "inputs": [],
      "name": "totalSupply",
      "outputs": [
        {
          "internalType": "uint256",
          "name": "",
          "type": "uint256"
        }
      ],
      "payable": false,
      "stateMutability": "view",
      "type": "function"
    },
    {
      "constant": true,
      "inputs": [
        {
          "internalType": "address",
          "name": "account",
          "type": "address"
        }
      ],
      "name": "balanceOf",
      "outputs": [
        {
          "internalType": "uint256",
          "name": "",
          "type": "uint256"
        }
      ],
      "payable": false,
      "stateMutability": "view",
      "type": "function"
    },
    {
      "constant": false,
      "inputs": [
        {
          "internalType": "address",
          "name": "recipient",
          "type": "address"
        },
        {
          "internalType": "uint256",
          "name": "amount",
          "type": "uint256"
        }
      ],
      "name": "transfer",
      "outputs": [
        {
          "internalType": "bool",
          "name": "",
          "type": "bool"
        }
      ],
      "payable": false,
      "stateMutability": "nonpayable",
      "type": "function"
    },
    {
      "constant": true,
      "inputs": [
        {
          "internalType": "address",
          "name": "owner",
          "type": "address"
        },
        {
          "internalType": "address",
          "name": "spender",
          "type": "address"
        }
      ],
      "name": "allowance",
      "outputs": [
        {
          "internalType": "uint256",
          "name": "",
          "type": "uint256"
        }
      ],
      "payable": false,
      "stateMutability": "view",
      "type": "function"
    },
    {
      "constant": false,
      "inputs": [
        {
          "internalType": "address",
          "name": "spender",
          "type": "address"
        },
        {
          "internalType": "uint256",
          "name": "amount",
          "type": "uint256"
        }
      ],
      "name": "approve",
      "outputs": [
        {
          "internalType": "bool",
          "name": "",
          "type": "bool"
        }
      ],
      "payable": false,
      "stateMutability": "nonpayable",
      "type": "function"
    },
    {
      "constant": false,
      "inputs": [
        {
          "internalType": "address",
          "name": "sender",
          "type": "address"
        },
        {
          "internalType": "address",
          "name": "recipient",
          "type": "address"
        },
        {
          "internalType": "uint256",
          "name": "amount",
          "type": "uint256"
        }
      ],
      "name": "transferFrom",
      "outputs": [
        {
          "internalType": "bool",
          "name": "",
          "type": "bool"
        }
      ],
      "payable": false,
      "stateMutability": "nonpayable",
      "type": "function"
    },
    {
      "constant": false,
      "inputs": [
        {
          "internalType": "address",
          "name": "spender",
          "type": "address"
        },
        {
          "internalType": "uint256",
          "name": "addedValue",
          "type": "uint256"
        }
      ],
      "name": "increaseAllowance",
      "outputs": [
        {
          "internalType": "bool",
          "name": "",
          "type": "bool"
        }
      ],
      "payable": false,
      "stateMutability": "nonpayable",
      "type": "function"
    },
    {
      "constant": false,
      "inputs": [
        {
          "internalType": "address",
          "name": "spender",
          "type": "address"
        },
        {
          "internalType": "uint256",
          "name": "subtractedValue",
          "type": "uint256"
        }
      ],
      "name": "decreaseAllowance",
      "outputs": [
        {
          "internalType": "bool",
          "name": "",
          "type": "bool"
        }
      ],
      "payable": false,
      "stateMutability": "nonpayable",
      "type": "function"
    },
    {
      "constant": true,
      "inputs": [
        {
          "internalType": "address",
          "name": "account",
          "type": "address"
        }
      ],
      "name": "principalBalanceOf",
      "outputs": [
        {
          "internalType": "uint256",
          "name": "",
          "type": "uint256"
        }
      ],
      "payable": false,
      "stateMutability": "view",
      "type": "function"
    },
    {
      "constant": true,
      "inputs": [],
      "name": "principalTotalSupply",
      "outputs": [
        {
          "internalType": "uint256",
          "name": "",
          "type": "uint256"
        }
      ],
      "payable": false,
      "stateMutability": "view",
      "type": "function"
    },
    {
      "constant": true,
      "inputs": [],
      "name": "potDrip",
      "outputs": [
        {
          "internalType": "uint256",
          "name": "",
          "type": "uint256"
        }
      ],
      "payable": false,
      "stateMutability": "view",
      "type": "function"
    },
    {
      "constant": true,
      "inputs": [],
      "name": "potSupply",
      "outputs": [
        {
          "internalType": "uint256",
          "name": "",
          "type": "uint256"
        }
      ],
      "payable": false,
      "stateMutability": "view",
      "type": "function"
    },
    {
      "constant": true,
      "inputs": [],
      "name": "principalPotSupply",
      "outputs": [
        {
          "internalType": "uint256",
          "name": "",
          "type": "uint256"
        }
      ],
      "payable": false,
      "stateMutability": "view",
      "type": "function"
    },
    {
      "constant": true,
      "inputs": [],
      "name": "getThreads",
      "outputs": [
        {
          "internalType": "uint256[]",
          "name": "rates",
          "type": "uint256[]"
        },
        {
          "internalType": "uint256[]",
          "name": "amounts",
          "type": "uint256[]"
        }
      ],
      "payable": false,
      "stateMutability": "view",
      "type": "function"
    },
    {
      "constant": false,
      "inputs": [
        {
          "internalType": "uint256",
          "name": "amount",
          "type": "uint256"
        }
      ],
      "name": "buy",
      "outputs": [],
      "payable": false,
      "stateMutability": "nonpayable",
      "type": "function"
    },
    {
      "constant": false,
      "inputs": [
        {
          "internalType": "uint256",
          "name": "amount",
          "type": "uint256"
        }
      ],
      "name": "sell",
      "outputs": [],
      "payable": false,
      "stateMutability": "nonpayable",
      "type": "function"
    },
    {
      "constant": false,
      "inputs": [
        {
          "internalType": "uint256",
          "name": "minTokens",
          "type": "uint256"
        }
      ],
      "name": "buyWithEther",
      "outputs": [
        {
          "internalType": "uint256",
          "name": "converted",
          "type": "uint256"
        }
      ],
      "payable": true,
      "stateMutability": "payable",
      "type": "function"
    },
    {
      "constant": false,
      "inputs": [
        {
          "internalType": "uint256",
          "name": "amount",
          "type": "uint256"
        },
        {
          "internalType": "uint256",
          "name": "minEth",
          "type": "uint256"
        }
      ],
      "name": "sellForEther",
      "outputs": [
        {
          "internalType": "uint256",
          "name": "eth",
          "type": "uint256"
        }
      ],
      "payable": false,
      "stateMutability": "nonpayable",
      "type": "function"
    },
    {
      "constant": true,
      "inputs": [],
      "name": "rate",
      "outputs": [
        {
          "internalType": "uint256",
          "name": "",
          "type": "uint256"
        }
      ],
      "payable": false,
      "stateMutability": "view",
      "type": "function"
    },
    {
      "constant": false,
      "inputs": [],
      "name": "collect",
      "outputs": [],
      "payable": false,
      "stateMutability": "nonpayable",
      "type": "function"
    },
    {
      "constant": false,
      "inputs": [
        {
          "internalType": "uint8",
          "name": "key",
          "type": "uint8"
        },
        {
          "internalType": "bytes32",
          "name": "val",
          "type": "bytes32"
        }
      ],
      "name": "cast",
      "outputs": [
        {
          "internalType": "bool",
          "name": "",
          "type": "bool"
        }
      ],
      "payable": false,
      "stateMutability": "nonpayable",
      "type": "function"
    }
  ],
  "bytecode": "0x60806040523480156200001157600080fd5b5060405162003eb138038062003eb1833981810160405260208110156200003757600080fd5b5051600a80546001600160a01b0319908116734f96fe3b7a6cf9725f59d353f723c1bdb64ca6aa179091556003805482167389188be35b16af852dc0a4a9e47e0ca871fadf9a179055600480546001600160a01b0380851691841691909117825569d3c21bcecceda100000060055561019060065560078054841673d3e51ef092b2845f10401a0159b2b96e8b6c3d30179055602860085561d2f0600955600f80548416735aa71a3ae1c0bd6ac27a1f28e1415fffb6f15b8c1790819055600e8054851673ba987bdb501d131f766fee8180da5d81b34b69d917908190556010805490951673ea190dbdc7adf265260ec4da6e9675fd4f5a78bb17909455604080516328ec8bf160e21b815291831693820193909352915192169163a3b22fc49160248082019260009290919082900301818387803b1580156200017a57600080fd5b505af11580156200018f573d6000803e3d6000fd5b5050600e54601054604080516328ec8bf160e21b81526001600160a01b039283166004820152905191909216935063a3b22fc49250602480830192600092919082900301818387803b158015620001e557600080fd5b505af1158015620001fa573d6000803e3d6000fd5b5050600754601380546001600160a01b0319166001600160a01b039283161790819055600a54604080516303795fb160e11b81529184166004830152519190921693506306f2bf6292506024808301926020929190829003018186803b1580156200026457600080fd5b505afa15801562000279573d6000803e3d6000fd5b505050506040513d60208110156200029057600080fd5b5051601480546001600160a01b0319166001600160a01b03928316179055600a54600f546040805163095ea7b360e01b81529184166004830152600019602483015251919092169163095ea7b39160448083019260209291908290030181600087803b1580156200030057600080fd5b505af115801562000315573d6000803e3d6000fd5b505050506040513d60208110156200032c57600080fd5b506200034290506001600160e01b036200034916565b50620009e5565b60115442101562000394576040805162461bcd60e51b815260206004820152601060248201526f64637a6b2f696e76616c69642d6e6f7760801b604482015290519081900360640190fd5b6000620003a96001600160e01b036200046316565b90506000620003c1826012546200060d60201b60201c565b60128390554260115590506000620003f582620003e66001600160e01b036200066016565b6001600160e01b03620006df16565b905080156200045e5762000412816001600160e01b036200071316565b7fcb1652de9aeec38545fc281847b3dbfc89aab56dfa907b1ab68466f602c36fb4620004466001600160e01b036200080d16565b60408051918252602082018490528051918290030190a15b505050565b6000620006086200057c601060009054906101000a90046001600160a01b03166001600160a01b031663487bf0826040518163ffffffff1660e01b815260040160206040518083038186803b158015620004bc57600080fd5b505afa158015620004d1573d6000803e3d6000fd5b505050506040513d6020811015620004e857600080fd5b5051601054604080516320aba08b60e01b815290516001600160a01b03909216916320aba08b91600480820192602092909190829003018186803b1580156200053057600080fd5b505afa15801562000545573d6000803e3d6000fd5b505050506040513d60208110156200055c57600080fd5b505142036b033b2e3c9fd0803ce80000006001600160e01b036200085e16565b601060009054906101000a90046001600160a01b03166001600160a01b031663c92aecc46040518163ffffffff1660e01b815260040160206040518083038186803b158015620005cb57600080fd5b505afa158015620005e0573d6000803e3d6000fd5b505050506040513d6020811015620005f757600080fd5b50516001600160e01b03620006df16565b905090565b60006200065783836040518060400160405280601e81526020017f536166654d6174683a207375627472616374696f6e206f766572666c6f7700008152506200092a60201b60201c565b90505b92915050565b601054604080516305f5d64360e11b815230600482015290516000926001600160a01b031691630bebac86916024808301926020929190829003018186803b158015620006ac57600080fd5b505afa158015620006c1573d6000803e3d6000fd5b505050506040513d6020811015620006d857600080fd5b5051905090565b60006b033b2e3c9fd0803ce80000006200070384846001600160e01b03620009be16565b816200070b57fe5b049392505050565b6000620007286001600160e01b036200080d16565b6000818152600d60205260409020600101549091501580156200074c5750600b5415155b15620007e257600b5460005b8282106200079a57506000818152600d60205260409020548190156200078f576000918252600d6020526040909120549062000794565b600091505b62000758565b828214620007df5780620007c457600b80546000858152600d6020526040902055839055620007df565b6000818152600d602052604080822085905584825290208290555b50505b80600b541015620007f357600b8190555b6000908152600d6020526040902060010180549091019055565b6000600460009054906101000a90046001600160a01b03166001600160a01b0316633fa4f2456040518163ffffffff1660e01b815260040160206040518083038186803b158015620006ac57600080fd5b60008380156200090a576001841680156200087c5785925062000880565b8392505b50600283046002850494505b841562000903578586028687820414620008a557600080fd5b81810181811015620008b657600080fd5b85810497506002870615620008f5578785028589820414158915151615620008dd57600080fd5b83810181811015620008ee57600080fd5b8790049550505b50506002850494506200088c565b5062000922565b8380156200091c576000925062000920565b8392505b505b509392505050565b8183038184821115620009225760405162461bcd60e51b81526004018080602001828103825283818151815260200191508051906020019080838360005b838110156200098257818101518382015260200162000968565b50505050905090810190601f168015620009b05780820380516001836020036101000a031916815260200191505b509250505060405180910390fd5b6000811580620009db57505080820282828281620009d857fe5b04145b6200065a57600080fd5b6134bc80620009f56000396000f3fe6080604052600436106102d15760003560e01c80638bdb2afa11610179578063d151fea4116100d6578063e4849b321161008a578063f4b9fa7511610064578063f4b9fa7514610a9b578063f5715d5614610ab0578063f5c5112f14610af3576102d1565b8063e4849b3214610a47578063e522538114610a71578063ece1d6e514610a86576102d1565b8063d9d74170116100bb578063d9d74170146109d5578063dd62ed3e146109ea578063ddca3f4314610a32576102d1565b8063d151fea414610994578063d96a094a146109a9576102d1565b8063b9a286821161012d578063c618a1e411610112578063c618a1e41461092a578063c634dfaa1461093f578063c6e99c291461097f576102d1565b8063b9a2868214610867578063c11645bc14610915576102d1565b8063a457c2d71161015e578063a457c2d7146107c6578063a7d15a981461080c578063a9059cbb14610821576102d1565b80638bdb2afa1461079c57806395d89b41146107b1576102d1565b8063355274ea116102325780634ba2363a116101e65780636f8220ec116101c05780636f8220ec1461073257806370a08231146107475780637dc0d1d014610787576102d1565b80634ba2363a146106cd578063550b9c11146106e25780635ff8a364146106ff576102d1565b8063395093511161021757806339509351146106425780633ea10cac146106885780634162169f146106b8576102d1565b8063355274ea1461061857806336569e771461062d576102d1565b80631e559531116102895780632c4e722e1161026e5780632c4e722e146105c357806330d7e198146105d8578063313ce567146105ed576102d1565b80631e5595311461055e57806323b872dd14610573576102d1565b8063095ea7b3116102ba578063095ea7b3146104c857806318160ddd146105225780631bd133a414610549576102d1565b806306fdde031461040057806307bf76da1461048a575b36156102dc57600080fd5b601454604080517fcd7724c3000000000000000000000000000000000000000000000000000000008152346004820152905160009273ffffffffffffffffffffffffffffffffffffffff169163cd7724c3916024808301926020929190829003018186803b15801561034d57600080fd5b505afa158015610361573d6000803e3d6000fd5b505050506040513d602081101561037757600080fd5b5051600854909150309063550b9c119061039b908490818161039557fe5b04610b08565b6040518263ffffffff1660e01b815260040180828152602001915050602060405180830381600087803b1580156103d157600080fd5b505af11580156103e5573d6000803e3d6000fd5b505050506040513d60208110156103fb57600080fd5b505050005b34801561040c57600080fd5b50610415610b53565b6040805160208082528351818301528351919283929083019185019080838360005b8381101561044f578181015183820152602001610437565b50505050905090810190601f16801561047c5780820380516001836020036101000a031916815260200191505b509250505060405180910390f35b34801561049657600080fd5b5061049f610b8c565b6040805173ffffffffffffffffffffffffffffffffffffffff9092168252519081900360200190f35b3480156104d457600080fd5b5061050e600480360360408110156104eb57600080fd5b5073ffffffffffffffffffffffffffffffffffffffff8135169060200135610ba8565b604080519115158252519081900360200190f35b34801561052e57600080fd5b50610537610bbe565b60408051918252519081900360200190f35b34801561055557600080fd5b50610537610bd8565b34801561056a57600080fd5b50610537610bde565b34801561057f57600080fd5b5061050e6004803603606081101561059657600080fd5b5073ffffffffffffffffffffffffffffffffffffffff813581169160208101359091169060400135610c80565b3480156105cf57600080fd5b50610537610cf9565b3480156105e457600080fd5b50610537610d63565b3480156105f957600080fd5b50610602610d69565b6040805160ff9092168252519081900360200190f35b34801561062457600080fd5b50610537610d6e565b34801561063957600080fd5b5061049f610d74565b34801561064e57600080fd5b5061050e6004803603604081101561066557600080fd5b5073ffffffffffffffffffffffffffffffffffffffff8135169060200135610d90565b34801561069457600080fd5b50610537600480360360408110156106ab57600080fd5b5080359060200135610dd3565b3480156106c457600080fd5b5061049f610f9c565b3480156106d957600080fd5b5061049f610fb8565b610537600480360360208110156106f857600080fd5b5035610fd4565b34801561070b57600080fd5b5061050e6004803603604081101561072257600080fd5b5060ff81351690602001356110da565b34801561073e57600080fd5b506105376112fb565b34801561075357600080fd5b506105376004803603602081101561076a57600080fd5b503573ffffffffffffffffffffffffffffffffffffffff166113aa565b34801561079357600080fd5b5061049f6113e2565b3480156107a857600080fd5b5061049f6113fe565b3480156107bd57600080fd5b5061041561141a565b3480156107d257600080fd5b5061050e600480360360408110156107e957600080fd5b5073ffffffffffffffffffffffffffffffffffffffff8135169060200135611453565b34801561081857600080fd5b506105376114af565b34801561082d57600080fd5b5061050e6004803603604081101561084457600080fd5b5073ffffffffffffffffffffffffffffffffffffffff81351690602001356114b5565b34801561087357600080fd5b5061087c6114c2565b604051808060200180602001838103835285818151815260200191508051906020019060200280838360005b838110156108c05781810151838201526020016108a8565b50505050905001838103825284818151815260200191508051906020019060200280838360005b838110156108ff5781810151838201526020016108e7565b5050505090500194505050505060405180910390f35b34801561092157600080fd5b5061049f611644565b34801561093657600080fd5b50610537611660565b34801561094b57600080fd5b506105376004803603602081101561096257600080fd5b503573ffffffffffffffffffffffffffffffffffffffff16611666565b34801561098b57600080fd5b5061053761168e565b3480156109a057600080fd5b5061049f6116b3565b3480156109b557600080fd5b506109d3600480360360208110156109cc57600080fd5b50356116cf565b005b3480156109e157600080fd5b50610537611898565b3480156109f657600080fd5b5061053760048036036040811015610a0d57600080fd5b5073ffffffffffffffffffffffffffffffffffffffff8135811691602001351661189e565b348015610a3e57600080fd5b506105376118d6565b348015610a5357600080fd5b506109d360048036036020811015610a6a57600080fd5b50356118dc565b348015610a7d57600080fd5b506109d36118f5565b348015610a9257600080fd5b50610537611ac4565b348015610aa757600080fd5b5061049f611aca565b348015610abc57600080fd5b50610ada60048036036020811015610ad357600080fd5b5035611ae6565b6040805192835260208301919091528051918290030190f35b348015610aff57600080fd5b50610537611aff565b6000610b4a83836040518060400160405280601e81526020017f536166654d6174683a207375627472616374696f6e206f766572666c6f770000815250611b05565b90505b92915050565b6040518060400160405280600e81526020017f64435a4b20546573742076302e3300000000000000000000000000000000000081525081565b60145473ffffffffffffffffffffffffffffffffffffffff1681565b6000610bb5338484611bb7565b50600192915050565b6000610bd3610bcb611cfe565b600254611ead565b905090565b60085481565b601054604080517f0bebac86000000000000000000000000000000000000000000000000000000008152306004820152905160009273ffffffffffffffffffffffffffffffffffffffff1691630bebac86916024808301926020929190829003018186803b158015610c4f57600080fd5b505afa158015610c63573d6000803e3d6000fd5b505050506040513d6020811015610c7957600080fd5b5051905090565b6000610c8d848484611ed5565b73ffffffffffffffffffffffffffffffffffffffff841660009081526001602090815260408083203380855290835292819020548151606081019092526028808352610cef9489949093610cea939289926133ad90830139611b05565b611bb7565b5060019392505050565b6000600460009054906101000a900473ffffffffffffffffffffffffffffffffffffffff1673ffffffffffffffffffffffffffffffffffffffff16633fa4f2456040518163ffffffff1660e01b815260040160206040518083038186803b158015610c4f57600080fd5b60025490565b601281565b60055481565b600e5473ffffffffffffffffffffffffffffffffffffffff1681565b33600081815260016020908152604080832073ffffffffffffffffffffffffffffffffffffffff871684529091528120549091610bb5918590610cea9086612134565b600080610ddf84612144565b9050610ded33858330612349565b600a54601454604080517f095ea7b300000000000000000000000000000000000000000000000000000000815273ffffffffffffffffffffffffffffffffffffffff9283166004820152602481018590529051919092169163095ea7b39160448083019260209291908290030181600087803b158015610e6c57600080fd5b505af1158015610e80573d6000803e3d6000fd5b505050506040513d6020811015610e9657600080fd5b5050601454600954604080517f7237e03100000000000000000000000000000000000000000000000000000000815260048101859052602481018790524290920160448301523360648301525173ffffffffffffffffffffffffffffffffffffffff90921691637237e031916084808201926020929091908290030181600087803b158015610f2457600080fd5b505af1158015610f38573d6000803e3d6000fd5b505050506040513d6020811015610f4e57600080fd5b50516040805186815260208101849052808201839052905191935033917f5db9812fdd1f3b541a672f19364e295552ba2a718f3688a0996358c0a95ffce59181900360600190a25092915050565b60035473ffffffffffffffffffffffffffffffffffffffff1681565b60105473ffffffffffffffffffffffffffffffffffffffff1681565b601454600954604080517ff39b5b9b0000000000000000000000000000000000000000000000000000000081526004810185905242909201602483015251600092839273ffffffffffffffffffffffffffffffffffffffff9091169163f39b5b9b913491604480830192602092919082900301818588803b15801561105857600080fd5b505af115801561106c573d6000803e3d6000fd5b50505050506040513d602081101561108357600080fd5b50519050611090816129aa565b60408051828152602081018490523481830152905191935033917f0165e6a8b35d5517f388fb62d0d4348cc630fc343da081804014aaff44a102439181900360600190a250919050565b60035460009073ffffffffffffffffffffffffffffffffffffffff16331461116357604080517f08c379a000000000000000000000000000000000000000000000000000000000815260206004820152601660248201527f64637a6b2f7065726d697373696f6e2d64656e69656400000000000000000000604482015290519081900360640190fd5b60058360ff1611156111d657604080517f08c379a000000000000000000000000000000000000000000000000000000000815260206004820152601060248201527f64637a6b2f696e76616c69642d6b657900000000000000000000000000000000604482015290519081900360640190fd5b60ff831661121f57600480547fffffffffffffffffffffffff00000000000000000000000000000000000000001673ffffffffffffffffffffffffffffffffffffffff84161790555b8260ff16600114156112315760058290555b8260ff16600214156112435760068290555b8260ff166003141561129057600780547fffffffffffffffffffffffff00000000000000000000000000000000000000001673ffffffffffffffffffffffffffffffffffffffff84161790555b8260ff16600414156112a25760088290555b8260ff16600514156112b45760098290555b6040805160ff851681526020810184905281517f953fc6e02fb6dafffb1653989a2c88d0a3be9735d55cf1943d589c92234d98d8929181900390910190a150600192915050565b6000610bd3611308611cfe565b601054604080517f0bebac86000000000000000000000000000000000000000000000000000000008152306004820152905173ffffffffffffffffffffffffffffffffffffffff90921691630bebac8691602480820192602092909190829003018186803b15801561137957600080fd5b505afa15801561138d573d6000803e3d6000fd5b505050506040513d60208110156113a357600080fd5b5051611ead565b6000610b4d6113b7611cfe565b73ffffffffffffffffffffffffffffffffffffffff8416600090815260208190526040902054611ead565b60045473ffffffffffffffffffffffffffffffffffffffff1681565b60135473ffffffffffffffffffffffffffffffffffffffff1681565b6040518060400160405280600681526020017f64435a4b3033000000000000000000000000000000000000000000000000000081525081565b33600081815260016020908152604080832073ffffffffffffffffffffffffffffffffffffffff8716845282528083205481516060810190925260258083529394610bb59490938893610cea9392899261346390830139611b05565b60095481565b6000610bb5338484611ed5565b600b5460609081906000901561163f57600b54600191909101905b6000818152600d60205260409020541561150c576000908152600d6020526040902054600191909101906114dd565b600b5490508160405190808252806020026020018201604052801561153b578160200160208202803883390190505b50935081604051908082528060200260200182016040528015611568578160200160208202803883390190505b506000828152600d602052604081206001015482519295509185919061158a57fe5b60200260200101818152505080846000815181106115a457fe5b602002602001018181525050600091505b6000818152600d6020526040902054158015906115d25750600982115b1561163d576000908152600d602052604090205483516001929092019181908590849081106115fd57fe5b602002602001018181525050600d60008281526020019081526020016000206001015483838151811061162c57fe5b6020026020010181815250506115b5565b505b509091565b600f5473ffffffffffffffffffffffffffffffffffffffff1681565b600c5481565b73ffffffffffffffffffffffffffffffffffffffff1660009081526020819052604090205490565b6000610bd36116a661169e611cfe565b601254610b08565b6116ae610bde565b611ead565b60075473ffffffffffffffffffffffffffffffffffffffff1681565b600a54604080517fdd62ed3e0000000000000000000000000000000000000000000000000000000081523360048201523060248201529051839273ffffffffffffffffffffffffffffffffffffffff169163dd62ed3e916044808301926020929190829003018186803b15801561174557600080fd5b505afa158015611759573d6000803e3d6000fd5b505050506040513d602081101561176f57600080fd5b505110156117de57604080517f08c379a000000000000000000000000000000000000000000000000000000000815260206004820152601b60248201527f64637a6b2f696e73756666696369656e742d616c6c6f77616e63650000000000604482015290519081900360640190fd5b600a54604080517f23b872dd00000000000000000000000000000000000000000000000000000000815233600482015230602482015260448101849052905173ffffffffffffffffffffffffffffffffffffffff909216916323b872dd916064808201926020929091908290030181600087803b15801561185e57600080fd5b505af1158015611872573d6000803e3d6000fd5b505050506040513d602081101561188857600080fd5b506118949050816129aa565b5050565b60125481565b73ffffffffffffffffffffffffffffffffffffffff918216600090815260016020908152604080832093909416825291909152205490565b60065481565b60006118e782612144565b905061189433838333612349565b60045473ffffffffffffffffffffffffffffffffffffffff16331461197b57604080517f08c379a000000000000000000000000000000000000000000000000000000000815260206004820152601660248201527f64637a6b2f7065726d697373696f6e2d64656e69656400000000000000000000604482015290519081900360640190fd5b600a54604080517f70a08231000000000000000000000000000000000000000000000000000000008152306004820152905160009273ffffffffffffffffffffffffffffffffffffffff16916370a08231916024808301926020929190829003018186803b1580156119ec57600080fd5b505afa158015611a00573d6000803e3d6000fd5b505050506040513d6020811015611a1657600080fd5b5051600a54604080517fa9059cbb00000000000000000000000000000000000000000000000000000000815233600482015260248101849052905192935073ffffffffffffffffffffffffffffffffffffffff9091169163a9059cbb916044808201926020929091908290030181600087803b158015611a9557600080fd5b505af1158015611aa9573d6000803e3d6000fd5b505050506040513d6020811015611abf57600080fd5b505050565b600b5481565b600a5473ffffffffffffffffffffffffffffffffffffffff1681565b600d602052600090815260409020805460019091015482565b60115481565b8183038184821115611baf576040517f08c379a00000000000000000000000000000000000000000000000000000000081526004018080602001828103825283818151815260200191508051906020019080838360005b83811015611b74578181015183820152602001611b5c565b50505050905090810190601f168015611ba15780820380516001836020036101000a031916815260200191505b509250505060405180910390fd5b509392505050565b73ffffffffffffffffffffffffffffffffffffffff8316611c23576040517f08c379a000000000000000000000000000000000000000000000000000000000815260040180806020018281038252602481526020018061343f6024913960400191505060405180910390fd5b73ffffffffffffffffffffffffffffffffffffffff8216611c8f576040517f08c379a00000000000000000000000000000000000000000000000000000000081526004018080602001828103825260228152602001806133656022913960400191505060405180910390fd5b73ffffffffffffffffffffffffffffffffffffffff808416600081815260016020908152604080832094871680845294825291829020859055815185815291517f8c5be1e5ebec7d5bd14f71427d1e84f3dd0314c0f7b2291e5b200ac8c7c3b9259281900390910190a3505050565b6000610bd3611e45601060009054906101000a900473ffffffffffffffffffffffffffffffffffffffff1673ffffffffffffffffffffffffffffffffffffffff1663487bf0826040518163ffffffff1660e01b815260040160206040518083038186803b158015611d6e57600080fd5b505afa158015611d82573d6000803e3d6000fd5b505050506040513d6020811015611d9857600080fd5b5051601054604080517f20aba08b000000000000000000000000000000000000000000000000000000008152905173ffffffffffffffffffffffffffffffffffffffff909216916320aba08b91600480820192602092909190829003018186803b158015611e0557600080fd5b505afa158015611e19573d6000803e3d6000fd5b505050506040513d6020811015611e2f57600080fd5b505142036b033b2e3c9fd0803ce8000000612ab0565b601060009054906101000a900473ffffffffffffffffffffffffffffffffffffffff1673ffffffffffffffffffffffffffffffffffffffff1663c92aecc46040518163ffffffff1660e01b815260040160206040518083038186803b15801561137957600080fd5b60006b033b2e3c9fd0803ce8000000611ec68484612b6e565b81611ecd57fe5b049392505050565b73ffffffffffffffffffffffffffffffffffffffff8316611f41576040517f08c379a000000000000000000000000000000000000000000000000000000000815260040180806020018281038252602581526020018061341a6025913960400191505060405180910390fd5b73ffffffffffffffffffffffffffffffffffffffff8216611fad576040517f08c379a00000000000000000000000000000000000000000000000000000000081526004018080602001828103825260238152602001806133206023913960400191505060405180910390fd5b6000611fc082611fbb611cfe565b612b92565b90506120236000808673ffffffffffffffffffffffffffffffffffffffff1673ffffffffffffffffffffffffffffffffffffffff168152602001908152602001600020548260405180606001604052806026815260200161338760269139611b05565b73ffffffffffffffffffffffffffffffffffffffff808616600090815260208190526040808220939093559085168152205461205f9082612134565b73ffffffffffffffffffffffffffffffffffffffff8085166000818152602081815260409182902094909455805186815290519193928816927fddf252ad1be2c89b69c2b068fc378daa952ba7f163c4a11628f55a4df523b3ef92918290030190a38273ffffffffffffffffffffffffffffffffffffffff168473ffffffffffffffffffffffffffffffffffffffff167f76226d0a6dda3da2d0025b322e0655e22929da69023826c86bf77a55bd047b488385604051808381526020018281526020019250505060405180910390a350505050565b80820182811015610b4d57600080fd5b6000600b54600014156121b857604080517f08c379a000000000000000000000000000000000000000000000000000000000815260206004820152601460248201527f6d61785f726174652063616e6e6f742062652030000000000000000000000000604482015290519081900360640190fd5b816121c3333061189e565b101561223057604080517f08c379a000000000000000000000000000000000000000000000000000000000815260206004820152601a60248201527f637a6b2f696e73756666696369656e742d616c6c6f77616e6365000000000000604482015290519081900360640190fd5b612238612bab565b50600c805482019055600b5460009082905b8115612308576000818152600d6020526040902060010154670de0b6b3a764000090820204828111156122b65760008284670de0b6b3a7640000028161228c57fe5b6000858152600d602052604081206001018054939092049283900390915595019493506122dc9050565b6000828152600d6020526040812060018101805492905554600b55939093019291829003915b6000828152600d602052604090205415612302576000918252600d602052604090912054905b5061224a565b6040805185815260208101859052815133927fed7a144fad14804d5c249145e3e0e2b63a9eb455b76aee5bc92d711e9bba3e4a928290030190a25050919050565b73ffffffffffffffffffffffffffffffffffffffff84166123b5576040517f08c379a00000000000000000000000000000000000000000000000000000000081526004018080602001828103825260218152602001806133f96021913960400191505060405180910390fd5b826123bf856113aa565b101561242c57604080517f08c379a000000000000000000000000000000000000000000000000000000000815260206004820152601960248201527f64637a6b2f696e73756666696369656e742d62616c616e636500000000000000604482015290519081900360640190fd5b601054604080517f20aba08b000000000000000000000000000000000000000000000000000000008152905160009273ffffffffffffffffffffffffffffffffffffffff16916320aba08b916004808301926020929190829003018186803b15801561249757600080fd5b505afa1580156124ab573d6000803e3d6000fd5b505050506040513d60208110156124c157600080fd5b5051421161256257601060009054906101000a900473ffffffffffffffffffffffffffffffffffffffff1673ffffffffffffffffffffffffffffffffffffffff1663c92aecc46040518163ffffffff1660e01b815260040160206040518083038186803b15801561253157600080fd5b505afa158015612545573d6000803e3d6000fd5b505050506040513d602081101561255b57600080fd5b50516125f9565b601060009054906101000a900473ffffffffffffffffffffffffffffffffffffffff1673ffffffffffffffffffffffffffffffffffffffff16639f678cca6040518163ffffffff1660e01b8152600401602060405180830381600087803b1580156125cc57600080fd5b505af11580156125e0573d6000803e3d6000fd5b505050506040513d60208110156125f657600080fd5b50515b905060006126078583612ca5565b905061266a6000808873ffffffffffffffffffffffffffffffffffffffff1673ffffffffffffffffffffffffffffffffffffffff168152602001908152602001600020548260405180606001604052806022815260200161334360229139611b05565b73ffffffffffffffffffffffffffffffffffffffff871660009081526020819052604090205560025461269d9082610b08565b60025560408051868152905160009173ffffffffffffffffffffffffffffffffffffffff8916917fddf252ad1be2c89b69c2b068fc378daa952ba7f163c4a11628f55a4df523b3ef9181900360200190a36040805186815260208101839052815173ffffffffffffffffffffffffffffffffffffffff8916927f49995e5dd6158cf69ad3e9777c46755a1a826a446c6416992167462dad033b2a928290030190a2600061274a8584612ca5565b9050801561288a57601054604080517f7f8661a100000000000000000000000000000000000000000000000000000000815260048101849052905173ffffffffffffffffffffffffffffffffffffffff90921691637f8661a19160248082019260009290919082900301818387803b1580156127c557600080fd5b505af11580156127d9573d6000803e3d6000fd5b5050600f5473ffffffffffffffffffffffffffffffffffffffff16915063ef693bed9050856128088685611ead565b6040518363ffffffff1660e01b8152600401808373ffffffffffffffffffffffffffffffffffffffff1673ffffffffffffffffffffffffffffffffffffffff16815260200182815260200192505050600060405180830381600087803b15801561287157600080fd5b505af1158015612885573d6000803e3d6000fd5b505050505b73ffffffffffffffffffffffffffffffffffffffff8416301461294b5761294b8785610cea600160008c73ffffffffffffffffffffffffffffffffffffffff1673ffffffffffffffffffffffffffffffffffffffff16815260200190815260200160002060003073ffffffffffffffffffffffffffffffffffffffff1673ffffffffffffffffffffffffffffffffffffffff168152602001908152602001600020548a6040518060600160405280602481526020016133d560249139611b05565b6040805183815260208101889052815160009273ffffffffffffffffffffffffffffffffffffffff8b16927f76226d0a6dda3da2d0025b322e0655e22929da69023826c86bf77a55bd047b48929081900390910190a350505050505050565b60006129b4610cf9565b612a1f57604080517f08c379a000000000000000000000000000000000000000000000000000000000815260206004820152601060248201527f726174652063616e6e6f74206265203000000000000000000000000000000000604482015290519081900360640190fd5b60006006548381612a2c57fe5b049050808303612a3b81612cd1565b670de0b6b3a7640000612a4c610cf9565b820281612a5557fe5b600c80549290910491820190559250612a6f338483612db6565b6040805184815260208101839052815133927f1cbc5ab135991bd2b6a4b034a04aa2aa086dac1371cb9b16b8b5e2ed6b036bed928290030190a25050919050565b6000838015612b5157600184168015612acb57859250612acf565b8392505b50600283046002850494505b8415612b4b578586028687820414612af257600080fd5b81810181811015612b0257600080fd5b85810497506002870615612b3e578785028589820414158915151615612b2757600080fd5b83810181811015612b3757600080fd5b8790049550505b5050600285049450612adb565b50611baf565b838015612b615760009250612b65565b8392505b50509392505050565b6000811580612b8957505080820282828281612b8657fe5b04145b610b4d57600080fd5b600081611ec6846b033b2e3c9fd0803ce8000000612b6e565b601154421015612c1c57604080517f08c379a000000000000000000000000000000000000000000000000000000000815260206004820152601060248201527f64637a6b2f696e76616c69642d6e6f7700000000000000000000000000000000604482015290519081900360640190fd5b6000612c26611cfe565b90506000612c3682601254610b08565b60128390554260115590506000612c4f826116ae610bde565b90508015611abf57612c6081612cd1565b7fcb1652de9aeec38545fc281847b3dbfc89aab56dfa907b1ab68466f602c36fb4612c89610cf9565b60408051918252602082018490528051918290030190a1505050565b600081611ec6612cc1856b033b2e3c9fd0803ce8000000612b6e565b612ccc856001610b08565b612134565b6000612cdb610cf9565b6000818152600d6020526040902060010154909150158015612cfe5750600b5415155b15612d8c57600b5460005b828210612d4757506000818152600d6020526040902054819015612d3d576000918252600d60205260409091205490612d42565b600091505b612d09565b828214612d895780612d6e57600b80546000858152600d6020526040902055839055612d89565b6000818152600d602052604080822085905584825290208290555b50505b80600b541015612d9c57600b8190555b6000908152600d6020526040902060010180549091019055565b73ffffffffffffffffffffffffffffffffffffffff8316612e3857604080517f08c379a000000000000000000000000000000000000000000000000000000000815260206004820152601f60248201527f45524332303a206d696e7420746f20746865207a65726f206164647265737300604482015290519081900360640190fd5b601054604080517f20aba08b000000000000000000000000000000000000000000000000000000008152905160009273ffffffffffffffffffffffffffffffffffffffff16916320aba08b916004808301926020929190829003018186803b158015612ea357600080fd5b505afa158015612eb7573d6000803e3d6000fd5b505050506040513d6020811015612ecd57600080fd5b50514211612f6e57601060009054906101000a900473ffffffffffffffffffffffffffffffffffffffff1673ffffffffffffffffffffffffffffffffffffffff1663c92aecc46040518163ffffffff1660e01b815260040160206040518083038186803b158015612f3d57600080fd5b505afa158015612f51573d6000803e3d6000fd5b505050506040513d6020811015612f6757600080fd5b5051613005565b601060009054906101000a900473ffffffffffffffffffffffffffffffffffffffff1673ffffffffffffffffffffffffffffffffffffffff16639f678cca6040518163ffffffff1660e01b8152600401602060405180830381600087803b158015612fd857600080fd5b505af1158015612fec573d6000803e3d6000fd5b505050506040513d602081101561300257600080fd5b50515b905060006130138383612b92565b600f54604080517f3b4da69f00000000000000000000000000000000000000000000000000000000815230600482015260248101879052905192935073ffffffffffffffffffffffffffffffffffffffff90911691633b4da69f9160448082019260009290919082900301818387803b15801561308f57600080fd5b505af11580156130a3573d6000803e3d6000fd5b5050601054604080517f049878f300000000000000000000000000000000000000000000000000000000815260048101869052905173ffffffffffffffffffffffffffffffffffffffff909216935063049878f3925060248082019260009290919082900301818387803b15801561311a57600080fd5b505af115801561312e573d6000803e3d6000fd5b50505050600061313e8584612b92565b905061314c60025482612134565b60025573ffffffffffffffffffffffffffffffffffffffff861660009081526020819052604090205461317f9082612134565b73ffffffffffffffffffffffffffffffffffffffff87166000908152602081905260409020556005546002546131b6908590611ead565b111561322357604080517f08c379a000000000000000000000000000000000000000000000000000000000815260206004820152601060248201527f64637a6b2f6361702d7265616368656400000000000000000000000000000000604482015290519081900360640190fd5b60408051868152905173ffffffffffffffffffffffffffffffffffffffff8816916000917fddf252ad1be2c89b69c2b068fc378daa952ba7f163c4a11628f55a4df523b3ef9181900360200190a36040805182815260208101879052815173ffffffffffffffffffffffffffffffffffffffff8916926000927f76226d0a6dda3da2d0025b322e0655e22929da69023826c86bf77a55bd047b48929081900390910190a36040805186815260208101839052815173ffffffffffffffffffffffffffffffffffffffff8916927f4c209b5fc8ad50758f13e2e1088ba56a560dff690a1c6fef26394f4c03821c4f928290030190a250505050505056fe45524332303a207472616e7366657220746f20746865207a65726f206164647265737345524332303a206275726e20616d6f756e7420657863656564732062616c616e636545524332303a20617070726f766520746f20746865207a65726f206164647265737345524332303a207472616e7366657220616d6f756e7420657863656564732062616c616e636545524332303a207472616e7366657220616d6f756e74206578636565647320616c6c6f77616e636545524332303a206275726e20616d6f756e74206578636565647320616c6c6f77616e636545524332303a206275726e2066726f6d20746865207a65726f206164647265737345524332303a207472616e736665722066726f6d20746865207a65726f206164647265737345524332303a20617070726f76652066726f6d20746865207a65726f206164647265737345524332303a2064656372656173656420616c6c6f77616e63652062656c6f77207a65726fa265627a7a72315820e8f520037b4e90d78ab55c8262282309b64f6f4e01290fd8cd4cf2fde11f716c64736f6c63430005100032",
  "source": "/// DCZK.sol -- dCZK Decentralized Stablecoin\n\npragma solidity ^0.5.16;\n\ncontract IERC20 {\n    function totalSupply() external view returns (uint256);\n    function balanceOf(address account) external view returns (uint256);\n    function transfer(address recipient, uint256 amount) external returns (bool);\n    function allowance(address owner, address spender) external view returns (uint256);\n    function approve(address spender, uint256 amount) external returns (bool);\n    function transferFrom(address sender, address recipient, uint256 amount) external returns (bool);\n    event Transfer(address indexed from, address indexed to, uint256 value);\n    event Approval(address indexed owner, address indexed spender, uint256 value);\n}\n\ncontract Vat {\n    function hope(address) external;\n}\n\ncontract DaiJoin {\n    function join(address, uint) external;\n    function exit(address, uint) external;\n}\n\ncontract Pot {\n    function chi() external view returns (uint256);\n    function rho() external view returns (uint256);\n    function dsr() external view returns (uint256);\n    function pie(address) external view returns (uint256);\n    function drip() external returns (uint256);\n    function join(uint256) external;\n    function exit(uint256) external;\n}\n\ncontract UniswapFactoryInterface {\n    function getExchange(address token) external view returns (address exchange);\n}\n\ncontract UniswapExchangeInterface {\n    function getEthToTokenInputPrice(uint256 eth_sold) external view returns (uint256 tokens_bought);\n    function ethToTokenSwapInput(uint256 min_tokens, uint256 deadline) external payable returns (uint256  tokens_bought);\n    function tokenToEthTransferInput(uint256 tokens_sold, uint256 min_eth, uint256 deadline, address recipient) external returns (uint256  eth_bought);\n}\n\ncontract IOracle {\n    function value() external view returns (uint256);\n}\n\ncontract DCZK is IERC20 {\n\n    // --- ERC20 Events ---\n    event Transfer(address indexed from, address indexed to, uint256 value);\n    event Approval(address indexed owner, address indexed spender, uint256 value);\n\n    // --- Other events ---\n    event TransferPrincipal(address indexed from, address indexed to, uint256 principal, uint256 value);\n    event Mint(address indexed to, uint256 amount, uint256 principal);\n    event Burn(address indexed burner, uint256 amount, uint256 principal);\n    event Buy(address indexed buyer, uint256 dczk, uint256 dai);\n    event Sell(address indexed seller, uint256 dczk, uint256 dai);\n    event AddLiquidity(uint256 rate, uint256 amount);\n    event BuyWithEther(address indexed buyer, uint256 dczk, uint256 dai, uint256 eth);\n    event SellForEther(address indexed seller, uint256 dczk, uint256 dai, uint256 eth);\n    event Cast(uint8 key, bytes32 val);\n\n    // --- ERC20 basic vars ---\n    string public constant name     = \"dCZK Test v0.3\";\n    string public constant symbol   = \"dCZK03\";\n    uint8  public constant decimals = 18;\n    mapping (address => uint256)private _balances;\n    mapping (address => mapping (address => uint256)) private _allowances;\n    uint256 private _totalSupply;\n\n    // --- DAO access ---\n    address public dao;\n\n    // --- DAO governed parameters ---\n    address public oracle;    // oracle contract address\n    uint256 public cap;       // maximal supply\n    uint256 public fee;       // buy() fee\n    address public unifa;     // uniswap factory contract\n    uint256 public unisl;     // uniswap slippage\n    uint256 public unidl;     // uniswap deadline\n\n    // --- Maker DAI ---\n    IERC20  public dai;\n\n    // --- DEX ---\n    uint256 public maxRate;\n    uint256 public volume;\n    struct Thread {\n        uint next;\n        uint amount;\n    }\n    mapping(uint => Thread) public txs;\n\n    // --- Maker DSR ---\n    Vat     public vat;\n    DaiJoin public daiJoin;\n    Pot     public pot;\n\n    // --- Local savings rate ---\n    uint256 public lrho;\n    uint256 public lchi;\n\n    // --- Uniswap ---\n    UniswapFactoryInterface  public uniswapFactory;\n    UniswapExchangeInterface public daiExchange;\n\n\n    // --- Init ---\n    constructor (address _oracle) public {\n        \n        // core\n        dai = IERC20(0x4F96Fe3b7A6Cf9725f59d353F723c1bDb64CA6Aa);\n        dao = 0x89188bE35B16AF852dC0A4a9e47e0cA871fadf9a;\n\n        // default dao controlled parameters\n        oracle = _oracle;\n        cap    = 1000000000000000000000000;\n        fee    = 400;           // 0.25%\n        unifa  = 0xD3E51Ef092B2845f10401a0159B2B96e8B6c3D30;\n        unisl  = 40;            // uniswap slippage - 2.5%\n        unidl  = 900 * 60;      // uniswap deadline - 15 minutes\n\n        // DSR - DAI Savings Rate\n        daiJoin = DaiJoin(0x5AA71a3ae1C0bd6ac27A1f28e1415fFFB6F15B8c);\n        vat = Vat(0xbA987bDB501d131f766fEe8180Da5d81b34b69d9);\n        pot = Pot(0xEA190DBDC7adF265260ec4dA6e9675Fd4f5A78bb);\n\n        vat.hope(address(daiJoin));\n        vat.hope(address(pot));\n\n        // Uniswap\n        uniswapFactory = UniswapFactoryInterface(unifa);\n        daiExchange = UniswapExchangeInterface(uniswapFactory.getExchange(address(dai)));\n\n        dai.approve(address(daiJoin), uint256(-1));\n\n        // first drip\n        _drip();\n    }\n\n    // --- Math ---\n    // Taken from official DSR contract:\n    // https://github.com/makerdao/dss/blob/master/src/pot.sol\n\n    uint constant RAY = 10 ** 27;\n    function rpow(uint x, uint n, uint base) internal pure returns (uint z) {\n        assembly {\n            switch x case 0 {switch n case 0 {z := base} default {z := 0}}\n            default {\n                switch mod(n, 2) case 0 { z := base } default { z := x }\n                let half := div(base, 2)  // for rounding.\n                for { n := div(n, 2) } n { n := div(n,2) } { // solium-disable-line\n                    let xx := mul(x, x)\n                    if iszero(eq(div(xx, x), x)) { revert(0,0) }\n                    let xxRound := add(xx, half)\n                    if lt(xxRound, xx) { revert(0,0) }\n                    x := div(xxRound, base)\n                    if mod(n,2) {\n                        let zx := mul(z, x)\n                        if and(iszero(iszero(x)), iszero(eq(div(zx, x), z))) { revert(0,0) }\n                        let zxRound := add(zx, half)\n                        if lt(zxRound, zx) { revert(0,0) }\n                        z := div(zxRound, base)\n                    }\n                }\n            }\n        }\n    }\n\n    function add(uint x, uint y) internal pure returns (uint z) {\n        require((z = x + y) >= x);\n    }\n\n    function sub(uint x, uint y) internal pure returns (uint z) {\n        return sub(x, y, \"SafeMath: subtraction overflow\");\n    }\n\n    function sub(uint x, uint y, string memory err) internal pure returns (uint z) {\n        require((z = x - y) <= x, err);\n    }\n\n    function mul(uint x, uint y) internal pure returns (uint z) {\n        require(y == 0 || (z = x * y) / y == x);\n    }\n\n    function rmul(uint x, uint y) internal pure returns (uint z) {\n        // always rounds down\n        z = mul(x, y) / RAY;\n    }\n\n    function rdiv(uint x, uint y) internal pure returns (uint z) {\n        // always rounds down\n        z = mul(x, RAY) / y;\n    }\n\n    function rdivup(uint x, uint y) internal pure returns (uint z) {\n        // always rounds up\n        z = add(mul(x, RAY), sub(y, 1)) / y;\n    }\n\n    // --- ERC20 Token ---\n\n    function totalSupply() public view returns (uint256) {\n        return rmul(_chi(), _totalSupply);\n    }\n\n    function balanceOf(address account) public view returns (uint) {\n        return rmul(_chi(), _balances[account]);\n    }\n\n    function transfer(address recipient, uint256 amount) public returns (bool) {\n        _transfer(msg.sender, recipient, amount);\n        return true;\n    }\n\n    function allowance(address owner, address spender) public view returns (uint256) {\n        return _allowances[owner][spender];\n    }\n\n    function approve(address spender, uint256 amount) public returns (bool) {\n        _approve(msg.sender, spender, amount);\n        return true;\n    }\n\n    function transferFrom(address sender, address recipient, uint256 amount) public returns (bool) {\n        _transfer(sender, recipient, amount);\n        _approve(sender, msg.sender, sub(_allowances[sender][msg.sender], amount, \"ERC20: transfer amount exceeds allowance\"));\n        return true;\n    }\n\n    function increaseAllowance(address spender, uint256 addedValue) public returns (bool) {\n        _approve(msg.sender, spender, add(_allowances[msg.sender][spender], addedValue));\n        return true;\n    }\n\n    function decreaseAllowance(address spender, uint256 subtractedValue) public returns (bool) {\n        _approve(msg.sender, spender, sub(_allowances[msg.sender][spender], subtractedValue, \"ERC20: decreased allowance below zero\"));\n        return true;\n    }\n\n    function _transfer(address sender, address recipient, uint256 amount) private {\n        require(sender != address(0), \"ERC20: transfer from the zero address\");\n        require(recipient != address(0), \"ERC20: transfer to the zero address\");\n\n        uint pie = rdiv(amount, _chi());\n\n        _balances[sender] = sub(_balances[sender], pie, \"ERC20: transfer amount exceeds balance\");\n        _balances[recipient] = add(_balances[recipient], pie);\n\n        emit Transfer(sender, recipient, amount);\n        emit TransferPrincipal(sender, recipient, pie, amount);\n    }\n\n    function _approve(address owner, address spender, uint256 amount) private {\n        require(owner != address(0), \"ERC20: approve from the zero address\");\n        require(spender != address(0), \"ERC20: approve to the zero address\");\n\n        _allowances[owner][spender] = amount;\n        emit Approval(owner, spender, amount);\n    }\n\n    // --- Principal balances ---\n\n    function principalBalanceOf(address account) public view returns (uint) {\n        return _balances[account];\n    }\n\n    function principalTotalSupply() public view returns (uint256) {\n        return _totalSupply;\n    }\n\n    // --- DSR (DAI Savings rate) integration ---\n\n    function _chi() internal view returns (uint) {\n        return rmul(rpow(pot.dsr(), now - pot.rho(), RAY), pot.chi());\n    }\n\n    function _drip() internal {\n        require(now >= lrho, \"dczk/invalid-now\");\n        uint tmp = _chi();\n        uint chi_ = sub(tmp, lchi);\n        lchi = tmp;\n        lrho = now;\n        uint amount = rmul(chi_, principalPotSupply());\n        if (amount > 0) {\n          _addLiquidity(amount);\n          emit AddLiquidity(rate(), amount);\n        }\n    }\n\n    function potDrip() public view returns (uint) {\n        return rmul(sub(_chi(), lchi), principalPotSupply());\n    }\n\n    function potSupply() public view returns (uint256) {\n        return rmul(_chi(), pot.pie(address(this)));\n    }\n\n    function principalPotSupply() public view returns (uint256) {\n        return pot.pie(address(this));\n    }\n\n    // --- Minting and burning (internal) ---\n\n    function _mint(address dst, uint256 czk, uint256 _dai) private {\n        require(dst != address(0), \"ERC20: mint to the zero address\");\n        \n        uint256 chi = (now > pot.rho()) ? pot.drip() : pot.chi();\n\n        uint pie = rdiv(_dai, chi);\n        daiJoin.join(address(this), _dai);\n        pot.join(pie);\n        uint spie = rdiv(czk, chi);\n\n        _totalSupply = add(_totalSupply, spie);\n        _balances[dst] = add(_balances[dst], spie);\n\n        require(rmul(chi, _totalSupply) <= cap, \"dczk/cap-reached\");\n\n        emit Transfer(address(0), dst, czk);\n        emit TransferPrincipal(address(0), dst, spie, czk);\n        emit Mint(dst, czk, spie);\n    }\n\n    function _burn(address src, uint256 czk, uint256 _dai, address dst) private {\n        require(src != address(0), \"ERC20: burn from the zero address\");\n        require(balanceOf(src) >= czk, \"dczk/insufficient-balance\");\n\n        uint chi = (now > pot.rho()) ? pot.drip() : pot.chi();\n        uint spie = rdivup(czk, chi);\n\n        _balances[src] = sub(_balances[src], spie, \"ERC20: burn amount exceeds balance\");\n        _totalSupply = sub(_totalSupply, spie);\n        emit Transfer(src, address(0), czk);\n        emit Burn(src, czk, spie);\n\n        uint pie = rdivup(_dai, chi);\n        if (pie != 0) {\n            pot.exit(pie);\n            daiJoin.exit(dst, rmul(chi, pie));\n        }\n        if (dst != address(this)) {\n            _approve(src, dst, sub(_allowances[src][address(this)], czk, \"ERC20: burn amount exceeds allowance\"));\n        }\n        emit TransferPrincipal(src, address(0), spie, czk);\n    }\n\n    // --- DEX Decentralized exchange ---\n\n    function _addLiquidity(uint256 amount) internal {\n        uint256 _rate = rate();\n        if (txs[_rate].amount == 0 && maxRate != 0) {\n            uint currentRate = maxRate;\n            uint prevRate = 0;\n            while (currentRate >= _rate){\n                prevRate = currentRate;\n                if (txs[currentRate].next != 0) {\n                    currentRate = txs[currentRate].next;\n                } else {\n                    currentRate = 0;\n                }\n            }\n            if (currentRate != _rate) {\n                if (prevRate == 0) {\n                    txs[_rate].next = maxRate;\n                    maxRate = _rate;\n                } else {\n                    txs[prevRate].next = _rate;\n                    txs[_rate].next = currentRate;\n                }\n            }\n        }\n        if (maxRate < _rate) {\n            maxRate = _rate;\n        }\n        txs[_rate].amount += amount;\n    }\n\n    function _buyAndMint(uint256 amount) private returns(uint256 converted) {\n        require(rate() != 0, \"rate cannot be 0\");\n\n        // calculate fee - 0.25%\n        uint _fee = amount / fee;\n        uint rest = amount - _fee;\n        // TODO - do something with the fee - now its freezed on contract forever\n\n        // add liquidity to dex\n        _addLiquidity(rest);\n\n        // convert to stablecoin amount\n        converted = (rest * rate()) / 10 ** 18;\n\n        // save amount to total volume\n        volume += converted;\n\n        // mint tokens\n        _mint(address(msg.sender), converted, rest);\n\n        emit Buy(msg.sender, converted, rest);\n    }\n\n    function _sell(uint256 amount) private returns(uint256 deposit) {\n        require(maxRate != 0, \"max_rate cannot be 0\");\n        require(allowance(msg.sender, address(this)) >= amount, \"czk/insufficient-allowance\");\n        _drip();\n\n        // update total volume\n        volume += amount;\n\n        // calculate rate & deposit\n        uint _amount = amount;\n        deposit = 0;\n        uint currentRate = maxRate;\n        while (_amount > 0) {\n            uint full = (txs[currentRate].amount * currentRate) / 10 ** 18;\n            if (full > _amount) {\n                uint partialAmount = _amount * 10 ** 18 / currentRate;\n                txs[currentRate].amount -= partialAmount;\n                deposit += partialAmount;\n                _amount = 0;\n            } else {\n                _amount -= full;\n                deposit += txs[currentRate].amount;\n                txs[currentRate].amount = 0;\n                maxRate = txs[currentRate].next;\n            }\n            if (txs[currentRate].next != 0) {\n                currentRate = txs[currentRate].next;\n            }\n        }\n        emit Sell(msg.sender, amount, deposit);\n    }\n\n    function getThreads() public view returns(uint[] memory rates, uint[] memory amounts) {\n        uint len = 0;\n        if (maxRate != 0) {\n            len += 1;\n            uint currentRate = maxRate;\n            while (txs[currentRate].next != 0) {\n                len += 1;\n                currentRate = txs[currentRate].next;\n            }\n            currentRate = maxRate;\n            rates = new uint[](len);\n            amounts = new uint[](len);\n            amounts[0] = txs[currentRate].amount;\n            rates[0] = currentRate;\n            len = 0;\n            while (txs[currentRate].next != 0 && len > 9) {\n                len += 1;\n                currentRate = txs[currentRate].next;\n                rates[len] = currentRate;\n                amounts[len] = txs[currentRate].amount;\n            }\n        }\n    }\n\n    function buy(uint256 amount) external {\n        require(dai.allowance(msg.sender, address(this)) >= amount, \"dczk/insufficient-allowance\");\n        dai.transferFrom(msg.sender, address(this), amount);\n        _buyAndMint(amount);\n    }\n\n    function sell(uint256 amount) external {\n        uint256 deposit = _sell(amount);\n        _burn(msg.sender, amount, deposit, msg.sender);\n    }\n\n    // --- Uniswap Integration ---\n\n    function buyWithEther(uint256 minTokens) external payable returns(uint256 converted) {\n        uint256 deposit = daiExchange.ethToTokenSwapInput.value(msg.value)(minTokens, now + unidl);\n        converted = _buyAndMint(deposit);\n        emit BuyWithEther(msg.sender, converted, deposit, uint256(msg.value));\n    }\n\n    function sellForEther(uint256 amount, uint256 minEth) external returns(uint256 eth) {\n        uint256 deposit = _sell(amount);\n        _burn(msg.sender, amount, deposit, address(this));\n        dai.approve(address(daiExchange), deposit);\n        eth = daiExchange.tokenToEthTransferInput(deposit, minEth, now + unidl, msg.sender);\n        emit SellForEther(msg.sender, amount, deposit, eth);\n    }\n\n    function() external payable {\n        require(msg.data.length == 0);\n        uint256 price = daiExchange.getEthToTokenInputPrice(msg.value);\n        this.buyWithEther(sub(price, price / unisl));\n    }\n\n    // --- Oracle ---\n\n    function rate() public view returns(uint256) {\n      return IOracle(oracle).value();\n    }\n\n    function collect() external {\n      require(msg.sender == oracle, \"dczk/permission-denied\");\n      uint256 fees = dai.balanceOf(address(this));\n      dai.transfer(msg.sender, fees);\n    }\n\n    // --- DAO governance ---\n    //\n    //  uint256 -> bytes32 : web3.utils.padLeft(web3.utils.numberToHex(wei), 64)\n    //  address -> bytes32 : web3.utils.padLeft(address, 64)\n\n    function cast(uint8 key, bytes32 val) external returns(bool) {\n        require(msg.sender == dao, \"dczk/permission-denied\");\n        require(key <= 5, 'dczk/invalid-key');\n        if (key == 0) oracle = address(uint160(uint256(val)));\n        if (key == 1) cap    = uint256(val);\n        if (key == 2) fee    = uint256(val);\n        if (key == 3) unifa  = address(uint160(uint256(val)));\n        if (key == 4) unisl  = uint256(val);\n        if (key == 5) unidl  = uint256(val);\n        emit Cast(key, val);\n        return true;\n    }\n}\n",
  "sourcePath": "/Users/tree/Projects/dczk/contracts/DCZK.sol",
  "compiler": {
    "name": "solc",
    "version": "0.5.16+commit.9c3226ce.Emscripten.clang"
  },
  "schemaVersion": "3.0.23",
  "updatedAt": "2020-02-19T18:08:35.205Z",
  "networkType": "ethereum",
  "devdoc": {
    "methods": {}
  },
  "userdoc": {
    "methods": {}
  }
}