{
  "contractName": "Oracle",
  "abi": [
    {
      "anonymous": false,
      "inputs": [
        {
          "indexed": false,
          "internalType": "uint256",
          "name": "rate",
          "type": "uint256"
        },
        {
          "indexed": false,
          "internalType": "address",
          "name": "caller",
          "type": "address"
        }
      ],
      "name": "Update",
      "type": "event"
    },
    {
      "constant": true,
      "inputs": [],
      "name": "lastUpdate",
      "outputs": [
        {
          "internalType": "uint256",
          "name": "",
          "type": "uint256"
        }
      ],
      "payable": false,
      "stateMutability": "view",
      "type": "function"
    },
    {
      "constant": true,
      "inputs": [],
      "name": "value",
      "outputs": [
        {
          "internalType": "uint256",
          "name": "",
          "type": "uint256"
        }
      ],
      "payable": false,
      "stateMutability": "view",
      "type": "function"
    },
    {
      "constant": false,
      "inputs": [
        {
          "internalType": "uint256",
          "name": "_value",
          "type": "uint256"
        }
      ],
      "name": "update",
      "outputs": [],
      "payable": false,
      "stateMutability": "nonpayable",
      "type": "function"
    }
  ],
  "bytecode": "0x6080604052600080546001600160a01b0319167389188be35b16af852dc0a4a9e47e0ca871fadf9a1790556801314fb3706298000060015534801561004357600080fd5b50610194806100536000396000f3fe608060405234801561001057600080fd5b50600436106100415760003560e01c80633fa4f2451461004657806382ab890a14610060578063c04637111461007f575b600080fd5b61004e610087565b60408051918252519081900360200190f35b61007d6004803603602081101561007657600080fd5b503561008d565b005b61004e610159565b60015481565b60005473ffffffffffffffffffffffffffffffffffffffff16331461011357604080517f08c379a000000000000000000000000000000000000000000000000000000000815260206004820152601860248201527f6f7261636c652f7065726d697373696f6e2d64656e6965640000000000000000604482015290519081900360640190fd5b6001819055426002556040805182815233602082015281517f2e943002f66a261aa0e546cf9618bd716755c99d8a3930e2fdae512c6d201be9929181900390910190a150565b6002548156fea265627a7a723158205852d907cc66aee364801578d9f1a3fd36547c0db4ee3853779e4cfec5e30aef64736f6c63430005100032",
  "source": "/// Oracle.sol -- dCZK Oracle\n\npragma solidity ^0.5.16;\n\ncontract Oracle {\n\n    event Update(uint256 rate, address caller);\n\n    address owner = 0x89188bE35B16AF852dC0A4a9e47e0cA871fadf9a;\n    uint256 public value = 22000000000000000000;\n    uint256 public lastUpdate;\n\n    function update(uint256 _value) external {\n        // TODO implement Chainlink or other oracle\n        require(msg.sender == owner, \"oracle/permission-denied\");\n        value = _value;\n        lastUpdate = now;\n        emit Update(value, msg.sender);\n    }\n}\n",
  "sourcePath": "/Users/tree/Projects/dczk/contracts/Oracle.sol",
  "compiler": {
    "name": "solc",
    "version": "0.5.16+commit.9c3226ce.Emscripten.clang"
  },
  "schemaVersion": "3.0.23",
  "updatedAt": "2020-02-19T18:08:35.323Z",
  "networkType": "ethereum",
  "devdoc": {
    "methods": {}
  },
  "userdoc": {
    "methods": {}
  }
}