{
  "contractName": "Pot",
  "abi": [
    {
      "inputs": [
        {
          "internalType": "address",
          "name": "vat_",
          "type": "address"
        }
      ],
      "payable": false,
      "stateMutability": "nonpayable",
      "type": "constructor"
    },
    {
      "anonymous": true,
      "inputs": [
        {
          "indexed": true,
          "internalType": "bytes4",
          "name": "sig",
          "type": "bytes4"
        },
        {
          "indexed": true,
          "internalType": "address",
          "name": "usr",
          "type": "address"
        },
        {
          "indexed": true,
          "internalType": "bytes32",
          "name": "arg1",
          "type": "bytes32"
        },
        {
          "indexed": true,
          "internalType": "bytes32",
          "name": "arg2",
          "type": "bytes32"
        },
        {
          "indexed": false,
          "internalType": "bytes",
          "name": "data",
          "type": "bytes"
        }
      ],
      "name": "LogNote",
      "type": "event"
    },
    {
      "constant": true,
      "inputs": [],
      "name": "Pie",
      "outputs": [
        {
          "internalType": "uint256",
          "name": "",
          "type": "uint256"
        }
      ],
      "payable": false,
      "stateMutability": "view",
      "type": "function"
    },
    {
      "constant": true,
      "inputs": [],
      "name": "chi",
      "outputs": [
        {
          "internalType": "uint256",
          "name": "",
          "type": "uint256"
        }
      ],
      "payable": false,
      "stateMutability": "view",
      "type": "function"
    },
    {
      "constant": true,
      "inputs": [],
      "name": "dsr",
      "outputs": [
        {
          "internalType": "uint256",
          "name": "",
          "type": "uint256"
        }
      ],
      "payable": false,
      "stateMutability": "view",
      "type": "function"
    },
    {
      "constant": true,
      "inputs": [],
      "name": "live",
      "outputs": [
        {
          "internalType": "uint256",
          "name": "",
          "type": "uint256"
        }
      ],
      "payable": false,
      "stateMutability": "view",
      "type": "function"
    },
    {
      "constant": true,
      "inputs": [
        {
          "internalType": "address",
          "name": "",
          "type": "address"
        }
      ],
      "name": "pie",
      "outputs": [
        {
          "internalType": "uint256",
          "name": "",
          "type": "uint256"
        }
      ],
      "payable": false,
      "stateMutability": "view",
      "type": "function"
    },
    {
      "constant": true,
      "inputs": [],
      "name": "rho",
      "outputs": [
        {
          "internalType": "uint256",
          "name": "",
          "type": "uint256"
        }
      ],
      "payable": false,
      "stateMutability": "view",
      "type": "function"
    },
    {
      "constant": true,
      "inputs": [],
      "name": "vat",
      "outputs": [
        {
          "internalType": "contract VatLike",
          "name": "",
          "type": "address"
        }
      ],
      "payable": false,
      "stateMutability": "view",
      "type": "function"
    },
    {
      "constant": true,
      "inputs": [],
      "name": "vow",
      "outputs": [
        {
          "internalType": "address",
          "name": "",
          "type": "address"
        }
      ],
      "payable": false,
      "stateMutability": "view",
      "type": "function"
    },
    {
      "constant": true,
      "inputs": [
        {
          "internalType": "address",
          "name": "",
          "type": "address"
        }
      ],
      "name": "wards",
      "outputs": [
        {
          "internalType": "uint256",
          "name": "",
          "type": "uint256"
        }
      ],
      "payable": false,
      "stateMutability": "view",
      "type": "function"
    },
    {
      "constant": false,
      "inputs": [
        {
          "internalType": "address",
          "name": "guy",
          "type": "address"
        }
      ],
      "name": "rely",
      "outputs": [],
      "payable": false,
      "stateMutability": "nonpayable",
      "type": "function"
    },
    {
      "constant": false,
      "inputs": [
        {
          "internalType": "address",
          "name": "guy",
          "type": "address"
        }
      ],
      "name": "deny",
      "outputs": [],
      "payable": false,
      "stateMutability": "nonpayable",
      "type": "function"
    },
    {
      "constant": false,
      "inputs": [
        {
          "internalType": "bytes32",
          "name": "what",
          "type": "bytes32"
        },
        {
          "internalType": "uint256",
          "name": "data",
          "type": "uint256"
        }
      ],
      "name": "file",
      "outputs": [],
      "payable": false,
      "stateMutability": "nonpayable",
      "type": "function"
    },
    {
      "constant": false,
      "inputs": [
        {
          "internalType": "bytes32",
          "name": "what",
          "type": "bytes32"
        },
        {
          "internalType": "address",
          "name": "addr",
          "type": "address"
        }
      ],
      "name": "file",
      "outputs": [],
      "payable": false,
      "stateMutability": "nonpayable",
      "type": "function"
    },
    {
      "constant": false,
      "inputs": [],
      "name": "cage",
      "outputs": [],
      "payable": false,
      "stateMutability": "nonpayable",
      "type": "function"
    },
    {
      "constant": false,
      "inputs": [],
      "name": "drip",
      "outputs": [
        {
          "internalType": "uint256",
          "name": "tmp",
          "type": "uint256"
        }
      ],
      "payable": false,
      "stateMutability": "nonpayable",
      "type": "function"
    },
    {
      "constant": false,
      "inputs": [
        {
          "internalType": "uint256",
          "name": "wad",
          "type": "uint256"
        }
      ],
      "name": "join",
      "outputs": [],
      "payable": false,
      "stateMutability": "nonpayable",
      "type": "function"
    },
    {
      "constant": false,
      "inputs": [
        {
          "internalType": "uint256",
          "name": "wad",
          "type": "uint256"
        }
      ],
      "name": "exit",
      "outputs": [],
      "payable": false,
      "stateMutability": "nonpayable",
      "type": "function"
    }
  ],
  "bytecode": "0x608060405234801561001057600080fd5b50604051610dc7380380610dc78339818101604052602081101561003357600080fd5b5051336000908152602081905260409020600190819055600580546001600160a01b039093166001600160a01b0319909316929092179091556b033b2e3cb7602df349e89c056003556b033b2e3c9fd0803ce800000060045542600755600855610d25806100a26000396000f3fe608060405234801561001057600080fd5b506004361061011b5760003560e01c806365fae35e116100b25780639c52a7f111610081578063bf353dbb11610066578063bf353dbb14610293578063c92aecc4146102c6578063d4e8be83146102ce5761011b565b80639c52a7f1146102585780639f678cca1461028b5761011b565b806365fae35e146101f8578063692450091461022b5780637f8661a114610233578063957aa58c146102505761011b565b80632c69ed58116100ee5780632c69ed58146101af57806336569e77146101b7578063487bf082146101e8578063626cb3c5146101f05761011b565b8063049878f3146101205780630bebac861461013f57806320aba08b1461018457806329ae81141461018c575b600080fd5b61013d6004803603602081101561013657600080fd5b5035610307565b005b6101726004803603602081101561015557600080fd5b503573ffffffffffffffffffffffffffffffffffffffff16610402565b60405190815260200160405180910390f35b610172610416565b61013d600480360360408110156101a257600080fd5b508035906020013561041c565b610172610663565b6101bf610669565b60405173ffffffffffffffffffffffffffffffffffffffff909116815260200160405180910390f35b610172610685565b6101bf61068b565b61013d6004803603602081101561020e57600080fd5b503573ffffffffffffffffffffffffffffffffffffffff166106a7565b61013d61079f565b61013d6004803603602081101561024957600080fd5b5035610882565b6101726108b9565b61013d6004803603602081101561026e57600080fd5b503573ffffffffffffffffffffffffffffffffffffffff166108bf565b6101726109b4565b610172600480360360208110156102a957600080fd5b503573ffffffffffffffffffffffffffffffffffffffff16610abb565b610172610acf565b61013d600480360360408110156102e457600080fd5b508035906020013573ffffffffffffffffffffffffffffffffffffffff16610ad5565b6007544214610376576040517f08c379a000000000000000000000000000000000000000000000000000000000815260206004820152601360248201527f506f742f72686f2d6e6f742d7570646174656400000000000000000000000000604482015260640160405180910390fd5b336000908152600160205261039090604090205482610bbf565b336000908152600160205260409020556002546103ad9082610bbf565b6002555961012081016040526020815260e0602082015260e060006040830137602435600435337fffffffff000000000000000000000000000000000000000000000000000000006000351661012085a45050565b600160205280600052604060002054905081565b60075481565b33600090815260208190526040902054600114610499576040517f08c379a000000000000000000000000000000000000000000000000000000000815260206004820152601260248201527f506f742f6e6f742d617574686f72697a65640000000000000000000000000000604482015260640160405180910390fd5b600854600114610509576040517f08c379a000000000000000000000000000000000000000000000000000000000815260206004820152600c60248201527f506f742f6e6f742d6c6976650000000000000000000000000000000000000000604482015260640160405180910390fd5b6007544214610578576040517f08c379a000000000000000000000000000000000000000000000000000000000815260206004820152601360248201527f506f742f72686f2d6e6f742d7570646174656400000000000000000000000000604482015260640160405180910390fd5b817f647372000000000000000000000000000000000000000000000000000000000014156105aa576003819055610610565b6040517f08c379a000000000000000000000000000000000000000000000000000000000815260206004820152601b60248201527f506f742f66696c652d756e7265636f676e697a65642d706172616d0000000000604482015260640160405180910390fd5b5961012081016040526020815260e0602082015260e060006040830137602435600435337fffffffff000000000000000000000000000000000000000000000000000000006000351661012085a4505050565b60025481565b60055473ffffffffffffffffffffffffffffffffffffffff1681565b60035481565b60065473ffffffffffffffffffffffffffffffffffffffff1681565b33600090815260208190526040902054600114610724576040517f08c379a000000000000000000000000000000000000000000000000000000000815260206004820152601260248201527f506f742f6e6f742d617574686f72697a65640000000000000000000000000000604482015260640160405180910390fd5b73ffffffffffffffffffffffffffffffffffffffff81166000908152602081905260019060409020555961012081016040526020815260e0602082015260e060006040830137602435600435337fffffffff000000000000000000000000000000000000000000000000000000006000351661012085a45050565b3360009081526020819052604090205460011461081c576040517f08c379a000000000000000000000000000000000000000000000000000000000815260206004820152601260248201527f506f742f6e6f742d617574686f72697a65640000000000000000000000000000604482015260640160405180910390fd5b60006008556b033b2e3c9fd0803ce80000006003555961012081016040526020815260e0602082015260e060006040830137602435600435337fffffffff000000000000000000000000000000000000000000000000000000006000351661012085a450565b336000908152600160205261089c90604090205482610bd5565b336000908152600160205260409020556002546103ad9082610bd5565b60085481565b3360009081526020819052604090205460011461093c576040517f08c379a000000000000000000000000000000000000000000000000000000000815260206004820152601260248201527f506f742f6e6f742d617574686f72697a65640000000000000000000000000000604482015260640160405180910390fd5b73ffffffffffffffffffffffffffffffffffffffff81166000908152602081905260408120555961012081016040526020815260e0602082015260e060006040830137602435600435337fffffffff000000000000000000000000000000000000000000000000000000006000351661012085a45050565b6000600754421015610a26576040517f08c379a000000000000000000000000000000000000000000000000000000000815260206004820152600f60248201527f506f742f696e76616c69642d6e6f770000000000000000000000000000000000604482015260640160405180910390fd5b610a4e610a4660035460075442036b033b2e3c9fd0803ce8000000610be5565b600454610ca4565b90506000610a5e82600454610bd5565b50506004819055426007555961012081016040526020815260e0602082015260e060006040830137602435600435337fffffffff000000000000000000000000000000000000000000000000000000006000351661012085a45090565b600060205280600052604060002054905081565b60045481565b33600090815260208190526040902054600114610b52576040517f08c379a000000000000000000000000000000000000000000000000000000000815260206004820152601260248201527f506f742f6e6f742d617574686f72697a65640000000000000000000000000000604482015260640160405180910390fd5b817f766f77000000000000000000000000000000000000000000000000000000000014156105aa57600680547fffffffffffffffffffffffff00000000000000000000000000000000000000001673ffffffffffffffffffffffffffffffffffffffff8316179055610610565b80820182811015610bcf57600080fd5b92915050565b80820382811115610bcf57600080fd5b6000838015610c8657600184168015610c0057859250610c04565b8392505b50600283046002850494505b8415610c80578586028687820414610c2757600080fd5b81810181811015610c3757600080fd5b85810497506002870615610c73578785028589820414158915151615610c5c57600080fd5b83810181811015610c6c57600080fd5b8790049550505b5050600285049450610c10565b50610c9c565b838015610c965760009250610c9a565b8392505b505b509392505050565b60006b033b2e3c9fd0803ce8000000610cbd8484610ccc565b81610cc457fe5b049392505050565b6000811580610ce757505080820282828281610ce457fe5b04145b610bcf57600080fdfea265627a7a723158202ec10fa89482b2b9f9c1bd88bc756967397374b38b783416a6689b0f382e1c9264736f6c63430005100032",
  "source": "/// pot.sol -- Dai Savings Rate\n\n// Copyright (C) 2018 Rain <rainbreak@riseup.net>\n//\n// This program is free software: you can redistribute it and/or modify\n// it under the terms of the GNU Affero General Public License as published by\n// the Free Software Foundation, either version 3 of the License, or\n// (at your option) any later version.\n//\n// This program is distributed in the hope that it will be useful,\n// but WITHOUT ANY WARRANTY; without even the implied warranty of\n// MERCHANTABILITY or FITNESS FOR A PARTICULAR PURPOSE.  See the\n// GNU Affero General Public License for more details.\n//\n// You should have received a copy of the GNU Affero General Public License\n// along with this program.  If not, see <https://www.gnu.org/licenses/>.\n\npragma solidity ^0.5.12;\n\ncontract LibNote {\n    event LogNote(\n        bytes4   indexed  sig,\n        address  indexed  usr,\n        bytes32  indexed  arg1,\n        bytes32  indexed  arg2,\n        bytes             data\n    ) anonymous;\n\n    modifier note {\n        _;\n        assembly {\n            // log an 'anonymous' event with a constant 6 words of calldata\n            // and four indexed topics: selector, caller, arg1 and arg2\n            let mark := msize                         // end of memory ensures zero\n            mstore(0x40, add(mark, 288))              // update free memory pointer\n            mstore(mark, 0x20)                        // bytes type data offset\n            mstore(add(mark, 0x20), 224)              // bytes size (padded)\n            calldatacopy(add(mark, 0x40), 0, 224)     // bytes payload\n            log4(mark, 288,                           // calldata\n                 shl(224, shr(224, calldataload(0))), // msg.sig\n                 caller,                              // msg.sender\n                 calldataload(4),                     // arg1\n                 calldataload(36)                     // arg2\n                )\n        }\n    }\n}\n\n/*\n   \"Savings Dai\" is obtained when Dai is deposited into\n   this contract. Each \"Savings Dai\" accrues Dai interest\n   at the \"Dai Savings Rate\".\n\n   This contract does not implement a user tradeable token\n   and is intended to be used with adapters.\n\n         --- `save` your `dai` in the `pot` ---\n\n   - `dsr`: the Dai Savings Rate\n   - `pie`: user balance of Savings Dai\n\n   - `join`: start saving some dai\n   - `exit`: remove some dai\n   - `drip`: perform rate collection\n\n*/\n\ncontract VatLike {\n    function move(address,address,uint256) external;\n    function suck(address,address,uint256) external;\n}\n\ncontract Pot is LibNote {\n    // --- Auth ---\n    mapping (address => uint) public wards;\n    function rely(address guy) external note auth { wards[guy] = 1; }\n    function deny(address guy) external note auth { wards[guy] = 0; }\n    modifier auth {\n        require(wards[msg.sender] == 1, \"Pot/not-authorized\");\n        _;\n    }\n\n    // --- Data ---\n    mapping (address => uint256) public pie;  // user Savings Dai\n\n    uint256 public Pie;  // total Savings Dai\n    uint256 public dsr;  // the Dai Savings Rate\n    uint256 public chi;  // the Rate Accumulator\n\n    VatLike public vat;  // CDP engine\n    address public vow;  // debt engine\n    uint256 public rho;  // time of last drip\n\n    uint256 public live;  // Access Flag\n\n    // --- Init ---\n    constructor(address vat_) public {\n        wards[msg.sender] = 1;\n        vat = VatLike(vat_);\n        // dsr = ONE;\n        dsr = 1000000001697766583380253701;\n        chi = ONE;\n        rho = now;\n        live = 1;\n        \n    }\n\n    // --- Math ---\n    uint256 constant ONE = 10 ** 27;\n    function rpow(uint x, uint n, uint base) internal pure returns (uint z) {\n        assembly {\n            switch x case 0 {switch n case 0 {z := base} default {z := 0}}\n            default {\n                switch mod(n, 2) case 0 { z := base } default { z := x }\n                let half := div(base, 2)  // for rounding.\n                for { n := div(n, 2) } n { n := div(n,2) } {\n                    let xx := mul(x, x)\n                    if iszero(eq(div(xx, x), x)) { revert(0,0) }\n                    let xxRound := add(xx, half)\n                    if lt(xxRound, xx) { revert(0,0) }\n                    x := div(xxRound, base)\n                    if mod(n,2) {\n                        let zx := mul(z, x)\n                        if and(iszero(iszero(x)), iszero(eq(div(zx, x), z))) { revert(0,0) }\n                        let zxRound := add(zx, half)\n                        if lt(zxRound, zx) { revert(0,0) }\n                        z := div(zxRound, base)\n                    }\n                }\n            }\n        }\n    }\n\n    function rmul(uint x, uint y) internal pure returns (uint z) {\n        z = mul(x, y) / ONE;\n    }\n\n    function add(uint x, uint y) internal pure returns (uint z) {\n        require((z = x + y) >= x);\n    }\n\n    function sub(uint x, uint y) internal pure returns (uint z) {\n        require((z = x - y) <= x);\n    }\n\n    function mul(uint x, uint y) internal pure returns (uint z) {\n        require(y == 0 || (z = x * y) / y == x);\n    }\n\n    // --- Administration ---\n    function file(bytes32 what, uint256 data) external note auth {\n        require(live == 1, \"Pot/not-live\");\n        require(now == rho, \"Pot/rho-not-updated\");\n        if (what == \"dsr\") dsr = data;\n        else revert(\"Pot/file-unrecognized-param\");\n    }\n\n    function file(bytes32 what, address addr) external note auth {\n        if (what == \"vow\") vow = addr;\n        else revert(\"Pot/file-unrecognized-param\");\n    }\n\n    function cage() external note auth {\n        live = 0;\n        dsr = ONE;\n    }\n\n    // --- Savings Rate Accumulation ---\n    function drip() external note returns (uint tmp) {\n        require(now >= rho, \"Pot/invalid-now\");\n        tmp = rmul(rpow(dsr, now - rho, ONE), chi);\n        uint chi_ = sub(tmp, chi);\n        chi = tmp;\n        rho = now;\n        //vat.suck(address(vow), address(this), mul(Pie, chi_));\n    }\n\n    // --- Savings Dai Management ---\n    function join(uint wad) external note {\n        require(now == rho, \"Pot/rho-not-updated\");\n        pie[msg.sender] = add(pie[msg.sender], wad);\n        Pie             = add(Pie,             wad);\n        //vat.move(msg.sender, address(this), mul(chi, wad));\n    }\n\n    function exit(uint wad) external note {\n        pie[msg.sender] = sub(pie[msg.sender], wad);\n        Pie             = sub(Pie,             wad);\n        //vat.move(address(this), msg.sender, mul(chi, wad));\n    }\n}",
  "sourcePath": "/Users/tree/Projects/dczk/contracts/maker/pot.sol",
  "compiler": {
    "name": "solc",
    "version": "0.5.16+commit.9c3226ce.Emscripten.clang"
  },
  "schemaVersion": "3.0.23",
  "updatedAt": "2020-02-19T18:07:47.115Z",
  "devdoc": {
    "methods": {}
  },
  "userdoc": {
    "methods": {}
  }
}